{
  "_format": "hh-sol-artifact-1",
  "contractName": "LSYToken",
  "sourceName": "contracts/LSYToken.sol",
  "abi": [
    {
      "inputs": [],
      "stateMutability": "nonpayable",
      "type": "constructor"
    },
    {
      "inputs": [],
      "name": "ECDSAInvalidSignature",
      "type": "error"
    },
    {
      "inputs": [
        {
          "internalType": "uint256",
          "name": "length",
          "type": "uint256"
        }
      ],
      "name": "ECDSAInvalidSignatureLength",
      "type": "error"
    },
    {
      "inputs": [
        {
          "internalType": "bytes32",
          "name": "s",
          "type": "bytes32"
        }
      ],
      "name": "ECDSAInvalidSignatureS",
      "type": "error"
    },
    {
      "inputs": [
        {
          "internalType": "address",
          "name": "spender",
          "type": "address"
        },
        {
          "internalType": "uint256",
          "name": "allowance",
          "type": "uint256"
        },
        {
          "internalType": "uint256",
          "name": "needed",
          "type": "uint256"
        }
      ],
      "name": "ERC20InsufficientAllowance",
      "type": "error"
    },
    {
      "inputs": [
        {
          "internalType": "address",
          "name": "sender",
          "type": "address"
        },
        {
          "internalType": "uint256",
          "name": "balance",
          "type": "uint256"
        },
        {
          "internalType": "uint256",
          "name": "needed",
          "type": "uint256"
        }
      ],
      "name": "ERC20InsufficientBalance",
      "type": "error"
    },
    {
      "inputs": [
        {
          "internalType": "address",
          "name": "approver",
          "type": "address"
        }
      ],
      "name": "ERC20InvalidApprover",
      "type": "error"
    },
    {
      "inputs": [
        {
          "internalType": "address",
          "name": "receiver",
          "type": "address"
        }
      ],
      "name": "ERC20InvalidReceiver",
      "type": "error"
    },
    {
      "inputs": [
        {
          "internalType": "address",
          "name": "sender",
          "type": "address"
        }
      ],
      "name": "ERC20InvalidSender",
      "type": "error"
    },
    {
      "inputs": [
        {
          "internalType": "address",
          "name": "spender",
          "type": "address"
        }
      ],
      "name": "ERC20InvalidSpender",
      "type": "error"
    },
    {
      "inputs": [
        {
          "internalType": "uint256",
          "name": "deadline",
          "type": "uint256"
        }
      ],
      "name": "ERC2612ExpiredSignature",
      "type": "error"
    },
    {
      "inputs": [
        {
          "internalType": "address",
          "name": "signer",
          "type": "address"
        },
        {
          "internalType": "address",
          "name": "owner",
          "type": "address"
        }
      ],
      "name": "ERC2612InvalidSigner",
      "type": "error"
    },
    {
      "inputs": [
        {
          "internalType": "address",
          "name": "account",
          "type": "address"
        },
        {
          "internalType": "uint256",
          "name": "currentNonce",
          "type": "uint256"
        }
      ],
      "name": "InvalidAccountNonce",
      "type": "error"
    },
    {
      "inputs": [],
      "name": "InvalidShortString",
      "type": "error"
    },
    {
      "inputs": [
        {
          "internalType": "address",
          "name": "owner",
          "type": "address"
        }
      ],
      "name": "OwnableInvalidOwner",
      "type": "error"
    },
    {
      "inputs": [
        {
          "internalType": "address",
          "name": "account",
          "type": "address"
        }
      ],
      "name": "OwnableUnauthorizedAccount",
      "type": "error"
    },
    {
      "inputs": [],
      "name": "ReentrancyGuardReentrantCall",
      "type": "error"
    },
    {
      "inputs": [
        {
          "internalType": "string",
          "name": "str",
          "type": "string"
        }
      ],
      "name": "StringTooLong",
      "type": "error"
    },
    {
      "anonymous": false,
      "inputs": [
        {
          "indexed": true,
          "internalType": "address",
          "name": "owner",
          "type": "address"
        },
        {
          "indexed": true,
          "internalType": "address",
          "name": "spender",
          "type": "address"
        },
        {
          "indexed": false,
          "internalType": "uint256",
          "name": "value",
          "type": "uint256"
        }
      ],
      "name": "Approval",
      "type": "event"
    },
    {
      "anonymous": false,
      "inputs": [],
      "name": "EIP712DomainChanged",
      "type": "event"
    },
    {
      "anonymous": false,
      "inputs": [
        {
          "indexed": true,
          "internalType": "address",
          "name": "previousOwner",
          "type": "address"
        },
        {
          "indexed": true,
          "internalType": "address",
          "name": "newOwner",
          "type": "address"
        }
      ],
      "name": "OwnershipTransferred",
      "type": "event"
    },
    {
      "anonymous": false,
      "inputs": [
        {
          "indexed": true,
          "internalType": "address",
          "name": "from",
          "type": "address"
        },
        {
          "indexed": true,
          "internalType": "address",
          "name": "to",
          "type": "address"
        },
        {
          "indexed": false,
          "internalType": "uint256",
          "name": "value",
          "type": "uint256"
        }
      ],
      "name": "Transfer",
      "type": "event"
    },
    {
      "inputs": [],
      "name": "DOMAIN_SEPARATOR",
      "outputs": [
        {
          "internalType": "bytes32",
          "name": "",
          "type": "bytes32"
        }
      ],
      "stateMutability": "view",
      "type": "function"
    },
    {
      "inputs": [],
      "name": "TOKEN_PRICE",
      "outputs": [
        {
          "internalType": "uint256",
          "name": "",
          "type": "uint256"
        }
      ],
      "stateMutability": "view",
      "type": "function"
    },
    {
      "inputs": [],
      "name": "TOTAL_SUPPLY",
      "outputs": [
        {
          "internalType": "uint256",
          "name": "",
          "type": "uint256"
        }
      ],
      "stateMutability": "view",
      "type": "function"
    },
    {
      "inputs": [
        {
          "internalType": "address",
          "name": "owner",
          "type": "address"
        },
        {
          "internalType": "address",
          "name": "spender",
          "type": "address"
        }
      ],
      "name": "allowance",
      "outputs": [
        {
          "internalType": "uint256",
          "name": "",
          "type": "uint256"
        }
      ],
      "stateMutability": "view",
      "type": "function"
    },
    {
      "inputs": [
        {
          "internalType": "address",
          "name": "spender",
          "type": "address"
        },
        {
          "internalType": "uint256",
          "name": "value",
          "type": "uint256"
        }
      ],
      "name": "approve",
      "outputs": [
        {
          "internalType": "bool",
          "name": "",
          "type": "bool"
        }
      ],
      "stateMutability": "nonpayable",
      "type": "function"
    },
    {
      "inputs": [
        {
          "internalType": "address",
          "name": "account",
          "type": "address"
        }
      ],
      "name": "balanceOf",
      "outputs": [
        {
          "internalType": "uint256",
          "name": "",
          "type": "uint256"
        }
      ],
      "stateMutability": "view",
      "type": "function"
    },
    {
      "inputs": [],
      "name": "decimals",
      "outputs": [
        {
          "internalType": "uint8",
          "name": "",
          "type": "uint8"
        }
      ],
      "stateMutability": "view",
      "type": "function"
    },
    {
      "inputs": [],
      "name": "eip712Domain",
      "outputs": [
        {
          "internalType": "bytes1",
          "name": "fields",
          "type": "bytes1"
        },
        {
          "internalType": "string",
          "name": "name",
          "type": "string"
        },
        {
          "internalType": "string",
          "name": "version",
          "type": "string"
        },
        {
          "internalType": "uint256",
          "name": "chainId",
          "type": "uint256"
        },
        {
          "internalType": "address",
          "name": "verifyingContract",
          "type": "address"
        },
        {
          "internalType": "bytes32",
          "name": "salt",
          "type": "bytes32"
        },
        {
          "internalType": "uint256[]",
          "name": "extensions",
          "type": "uint256[]"
        }
      ],
      "stateMutability": "view",
      "type": "function"
    },
    {
      "inputs": [],
      "name": "name",
      "outputs": [
        {
          "internalType": "string",
          "name": "",
          "type": "string"
        }
      ],
      "stateMutability": "view",
      "type": "function"
    },
    {
      "inputs": [
        {
          "internalType": "address",
          "name": "owner",
          "type": "address"
        }
      ],
      "name": "nonces",
      "outputs": [
        {
          "internalType": "uint256",
          "name": "",
          "type": "uint256"
        }
      ],
      "stateMutability": "view",
      "type": "function"
    },
    {
      "inputs": [],
      "name": "owner",
      "outputs": [
        {
          "internalType": "address",
          "name": "",
          "type": "address"
        }
      ],
      "stateMutability": "view",
      "type": "function"
    },
    {
      "inputs": [
        {
          "internalType": "address",
          "name": "owner",
          "type": "address"
        },
        {
          "internalType": "address",
          "name": "spender",
          "type": "address"
        },
        {
          "internalType": "uint256",
          "name": "value",
          "type": "uint256"
        },
        {
          "internalType": "uint256",
          "name": "deadline",
          "type": "uint256"
        },
        {
          "internalType": "uint8",
          "name": "v",
          "type": "uint8"
        },
        {
          "internalType": "bytes32",
          "name": "r",
          "type": "bytes32"
        },
        {
          "internalType": "bytes32",
          "name": "s",
          "type": "bytes32"
        }
      ],
      "name": "permit",
      "outputs": [],
      "stateMutability": "nonpayable",
      "type": "function"
    },
    {
      "inputs": [],
      "name": "purchaseLSY",
      "outputs": [],
      "stateMutability": "payable",
      "type": "function"
    },
    {
      "inputs": [
        {
          "internalType": "address",
          "name": "stakingContract",
          "type": "address"
        }
      ],
      "name": "registerStakingPool",
      "outputs": [],
      "stateMutability": "nonpayable",
      "type": "function"
    },
    {
      "inputs": [],
      "name": "renounceOwnership",
      "outputs": [],
      "stateMutability": "nonpayable",
      "type": "function"
    },
    {
      "inputs": [],
      "name": "stakingPool",
      "outputs": [
        {
          "internalType": "address",
          "name": "",
          "type": "address"
        }
      ],
      "stateMutability": "view",
      "type": "function"
    },
    {
      "inputs": [],
      "name": "symbol",
      "outputs": [
        {
          "internalType": "string",
          "name": "",
          "type": "string"
        }
      ],
      "stateMutability": "view",
      "type": "function"
    },
    {
      "inputs": [],
      "name": "totalSupply",
      "outputs": [
        {
          "internalType": "uint256",
          "name": "",
          "type": "uint256"
        }
      ],
      "stateMutability": "view",
      "type": "function"
    },
    {
      "inputs": [
        {
          "internalType": "address",
          "name": "to",
          "type": "address"
        },
        {
          "internalType": "uint256",
          "name": "value",
          "type": "uint256"
        }
      ],
      "name": "transfer",
      "outputs": [
        {
          "internalType": "bool",
          "name": "",
          "type": "bool"
        }
      ],
      "stateMutability": "nonpayable",
      "type": "function"
    },
    {
      "inputs": [
        {
          "internalType": "address",
          "name": "from",
          "type": "address"
        },
        {
          "internalType": "address",
          "name": "to",
          "type": "address"
        },
        {
          "internalType": "uint256",
          "name": "value",
          "type": "uint256"
        }
      ],
      "name": "transferFrom",
      "outputs": [
        {
          "internalType": "bool",
          "name": "",
          "type": "bool"
        }
      ],
      "stateMutability": "nonpayable",
      "type": "function"
    },
    {
      "inputs": [
        {
          "internalType": "address",
          "name": "newOwner",
          "type": "address"
        }
      ],
      "name": "transferOwnership",
      "outputs": [],
      "stateMutability": "nonpayable",
      "type": "function"
    }
  ],
  "bytecode": "0x61016060405234801561001157600080fd5b50336040518060400160405280601181526020017f4c75636b795374616b696e675969656c64000000000000000000000000000000815250806040518060400160405280600181526020017f31000000000000000000000000000000000000000000000000000000000000008152506040518060400160405280601181526020017f4c75636b795374616b696e675969656c640000000000000000000000000000008152506040518060400160405280600381526020017f4c5359000000000000000000000000000000000000000000000000000000000081525081600390816100fb9190610986565b50806004908161010b9190610986565b50505061012260058361027c60201b90919060201c565b610120818152505061013e60068261027c60201b90919060201c565b6101408181525050818051906020012060e08181525050808051906020012061010081815250504660a0818152505061017b6102cc60201b60201c565b608081815250503073ffffffffffffffffffffffffffffffffffffffff1660c08173ffffffffffffffffffffffffffffffffffffffff1681525050505050600073ffffffffffffffffffffffffffffffffffffffff168173ffffffffffffffffffffffffffffffffffffffff160361022b5760006040517f1e4fbdf70000000000000000000000000000000000000000000000000000000081526004016102229190610a99565b60405180910390fd5b61023a8161032760201b60201c565b5060016009819055506102776102546103ed60201b60201c565b60026a084595161401484a00000061026c9190610b12565b61041760201b60201c565b610d82565b600060208351101561029e576102978361049f60201b60201c565b90506102c6565b826102ae8361050760201b60201c565b60000190816102bd9190610986565b5060ff60001b90505b92915050565b60007f8b73c3c69bb8fe3d512ecc4cf759cc79239f7b179b0ffacaa9a75d522b39400f60e05161010051463060405160200161030c959493929190610b6b565b60405160208183030381529060405280519060200120905090565b6000600860009054906101000a900473ffffffffffffffffffffffffffffffffffffffff16905081600860006101000a81548173ffffffffffffffffffffffffffffffffffffffff021916908373ffffffffffffffffffffffffffffffffffffffff1602179055508173ffffffffffffffffffffffffffffffffffffffff168173ffffffffffffffffffffffffffffffffffffffff167f8be0079c531659141344cd1fd0a4f28419497f9722a3daafe3b4186f6b6457e060405160405180910390a35050565b6000600860009054906101000a900473ffffffffffffffffffffffffffffffffffffffff16905090565b600073ffffffffffffffffffffffffffffffffffffffff168273ffffffffffffffffffffffffffffffffffffffff16036104895760006040517fec442f050000000000000000000000000000000000000000000000000000000081526004016104809190610a99565b60405180910390fd5b61049b6000838361051160201b60201c565b5050565b600080829050601f815111156104ec57826040517f305a27a90000000000000000000000000000000000000000000000000000000081526004016104e39190610c43565b60405180910390fd5b8051816104f890610c95565b60001c1760001b915050919050565b6000819050919050565b600073ffffffffffffffffffffffffffffffffffffffff168373ffffffffffffffffffffffffffffffffffffffff16036105635780600260008282546105579190610cfc565b92505081905550610636565b60008060008573ffffffffffffffffffffffffffffffffffffffff1673ffffffffffffffffffffffffffffffffffffffff168152602001908152602001600020549050818110156105ef578381836040517fe450d38c0000000000000000000000000000000000000000000000000000000081526004016105e693929190610d30565b60405180910390fd5b8181036000808673ffffffffffffffffffffffffffffffffffffffff1673ffffffffffffffffffffffffffffffffffffffff16815260200190815260200160002081905550505b600073ffffffffffffffffffffffffffffffffffffffff168273ffffffffffffffffffffffffffffffffffffffff160361067f57806002600082825403925050819055506106cc565b806000808473ffffffffffffffffffffffffffffffffffffffff1673ffffffffffffffffffffffffffffffffffffffff168152602001908152602001600020600082825401925050819055505b8173ffffffffffffffffffffffffffffffffffffffff168373ffffffffffffffffffffffffffffffffffffffff167fddf252ad1be2c89b69c2b068fc378daa952ba7f163c4a11628f55a4df523b3ef836040516107299190610d67565b60405180910390a3505050565b600081519050919050565b7f4e487b7100000000000000000000000000000000000000000000000000000000600052604160045260246000fd5b7f4e487b7100000000000000000000000000000000000000000000000000000000600052602260045260246000fd5b600060028204905060018216806107b757607f821691505b6020821081036107ca576107c9610770565b5b50919050565b60008190508160005260206000209050919050565b60006020601f8301049050919050565b600082821b905092915050565b6000600883026108327fffffffffffffffffffffffffffffffffffffffffffffffffffffffffffffffff826107f5565b61083c86836107f5565b95508019841693508086168417925050509392505050565b6000819050919050565b6000819050919050565b600061088361087e61087984610854565b61085e565b610854565b9050919050565b6000819050919050565b61089d83610868565b6108b16108a98261088a565b848454610802565b825550505050565b600090565b6108c66108b9565b6108d1818484610894565b505050565b5b818110156108f5576108ea6000826108be565b6001810190506108d7565b5050565b601f82111561093a5761090b816107d0565b610914846107e5565b81016020851015610923578190505b61093761092f856107e5565b8301826108d6565b50505b505050565b600082821c905092915050565b600061095d6000198460080261093f565b1980831691505092915050565b6000610976838361094c565b9150826002028217905092915050565b61098f82610736565b67ffffffffffffffff8111156109a8576109a7610741565b5b6109b2825461079f565b6109bd8282856108f9565b600060209050601f8311600181146109f057600084156109de578287015190505b6109e8858261096a565b865550610a50565b601f1984166109fe866107d0565b60005b82811015610a2657848901518255600182019150602085019450602081019050610a01565b86831015610a435784890151610a3f601f89168261094c565b8355505b6001600288020188555050505b505050505050565b600073ffffffffffffffffffffffffffffffffffffffff82169050919050565b6000610a8382610a58565b9050919050565b610a9381610a78565b82525050565b6000602082019050610aae6000830184610a8a565b92915050565b7f4e487b7100000000000000000000000000000000000000000000000000000000600052601260045260246000fd5b7f4e487b7100000000000000000000000000000000000000000000000000000000600052601160045260246000fd5b6000610b1d82610854565b9150610b2883610854565b925082610b3857610b37610ab4565b5b828204905092915050565b6000819050919050565b610b5681610b43565b82525050565b610b6581610854565b82525050565b600060a082019050610b806000830188610b4d565b610b8d6020830187610b4d565b610b9a6040830186610b4d565b610ba76060830185610b5c565b610bb46080830184610a8a565b9695505050505050565b600082825260208201905092915050565b60005b83811015610bed578082015181840152602081019050610bd2565b60008484015250505050565b6000601f19601f8301169050919050565b6000610c1582610736565b610c1f8185610bbe565b9350610c2f818560208601610bcf565b610c3881610bf9565b840191505092915050565b60006020820190508181036000830152610c5d8184610c0a565b905092915050565b600081519050919050565b6000819050602082019050919050565b6000610c8c8251610b43565b80915050919050565b6000610ca082610c65565b82610caa84610c70565b9050610cb581610c80565b92506020821015610cf557610cf07fffffffffffffffffffffffffffffffffffffffffffffffffffffffffffffffff836020036008026107f5565b831692505b5050919050565b6000610d0782610854565b9150610d1283610854565b9250828201905080821115610d2a57610d29610ae3565b5b92915050565b6000606082019050610d456000830186610a8a565b610d526020830185610b5c565b610d5f6040830184610b5c565b949350505050565b6000602082019050610d7c6000830184610b5c565b92915050565b60805160a05160c05160e051610100516101205161014051612462610ddc600039600061115101526000611116015260006116660152600061164501526000610e4201526000610e9801526000610ec101526124626000f3fe60806040526004361061012a5760003560e01c80637469b929116100ab57806395d89b411161006f57806395d89b41146103cb578063a9059cbb146103f6578063d2d8cb6714610433578063d505accf1461045e578063dd62ed3e14610487578063f2fde38b146104c45761012a565b80637469b929146102de5780637ecebe001461030757806384b0196e146103445780638da5cb5b14610375578063902d55a5146103a05761012a565b806330ddf15b116100f257806330ddf15b1461022a578063313ce567146102345780633644e5151461025f57806370a082311461028a578063715018a6146102c75761012a565b806306fdde031461012f578063095ea7b31461015a5780630c56ae3b1461019757806318160ddd146101c257806323b872dd146101ed575b600080fd5b34801561013b57600080fd5b506101446104ed565b6040516101519190611b53565b60405180910390f35b34801561016657600080fd5b50610181600480360381019061017c9190611c0e565b61057f565b60405161018e9190611c69565b60405180910390f35b3480156101a357600080fd5b506101ac6105a2565b6040516101b99190611c93565b60405180910390f35b3480156101ce57600080fd5b506101d76105c8565b6040516101e49190611cbd565b60405180910390f35b3480156101f957600080fd5b50610214600480360381019061020f9190611cd8565b6105d2565b6040516102219190611c69565b60405180910390f35b610232610601565b005b34801561024057600080fd5b506102496106b6565b6040516102569190611d47565b60405180910390f35b34801561026b57600080fd5b506102746106bf565b6040516102819190611d7b565b60405180910390f35b34801561029657600080fd5b506102b160048036038101906102ac9190611d96565b6106ce565b6040516102be9190611cbd565b60405180910390f35b3480156102d357600080fd5b506102dc610716565b005b3480156102ea57600080fd5b5061030560048036038101906103009190611d96565b61072a565b005b34801561031357600080fd5b5061032e60048036038101906103299190611d96565b610842565b60405161033b9190611cbd565b60405180910390f35b34801561035057600080fd5b50610359610854565b60405161036c9796959493929190611ebc565b60405180910390f35b34801561038157600080fd5b5061038a6108fe565b6040516103979190611c93565b60405180910390f35b3480156103ac57600080fd5b506103b5610928565b6040516103c29190611cbd565b60405180910390f35b3480156103d757600080fd5b506103e0610937565b6040516103ed9190611b53565b60405180910390f35b34801561040257600080fd5b5061041d60048036038101906104189190611c0e565b6109c9565b60405161042a9190611c69565b60405180910390f35b34801561043f57600080fd5b506104486109ec565b6040516104559190611cbd565b60405180910390f35b34801561046a57600080fd5b5061048560048036038101906104809190611f98565b6109f6565b005b34801561049357600080fd5b506104ae60048036038101906104a9919061203a565b610b3e565b6040516104bb9190611cbd565b60405180910390f35b3480156104d057600080fd5b506104eb60048036038101906104e69190611d96565b610bc5565b005b6060600380546104fc906120a9565b80601f0160208091040260200160405190810160405280929190818152602001828054610528906120a9565b80156105755780601f1061054a57610100808354040283529160200191610575565b820191906000526020600020905b81548152906001019060200180831161055857829003601f168201915b5050505050905090565b60008061058a610c4b565b9050610597818585610c53565b600191505092915050565b600a60009054906101000a900473ffffffffffffffffffffffffffffffffffffffff1681565b6000600254905090565b6000806105dd610c4b565b90506105ea858285610c65565b6105f5858585610cfa565b60019150509392505050565b610609610dee565b6000341161064c576040517f08c379a000000000000000000000000000000000000000000000000000000000815260040161064390612126565b60405180910390fd5b61065e6106576108fe565b3334610cfa565b6106666108fe565b73ffffffffffffffffffffffffffffffffffffffff166108fc349081150290604051600060405180830381858888f193505050501580156106ab573d6000803e3d6000fd5b506106b4610e34565b565b60006012905090565b60006106c9610e3e565b905090565b60008060008373ffffffffffffffffffffffffffffffffffffffff1673ffffffffffffffffffffffffffffffffffffffff168152602001908152602001600020549050919050565b61071e610ef5565b6107286000610f7c565b565b600073ffffffffffffffffffffffffffffffffffffffff16600a60009054906101000a900473ffffffffffffffffffffffffffffffffffffffff1673ffffffffffffffffffffffffffffffffffffffff16146107bb576040517f08c379a00000000000000000000000000000000000000000000000000000000081526004016107b290612192565b60405180910390fd5b80600a60006101000a81548173ffffffffffffffffffffffffffffffffffffffff021916908373ffffffffffffffffffffffffffffffffffffffff16021790555061083f600a60009054906101000a900473ffffffffffffffffffffffffffffffffffffffff1660026a084595161401484a00000061083a9190612210565b611042565b50565b600061084d826110c4565b9050919050565b60006060806000806000606061086861110d565b610870611148565b46306000801b600067ffffffffffffffff81111561089157610890612241565b5b6040519080825280602002602001820160405280156108bf5781602001602082028036833780820191505090505b507f0f00000000000000000000000000000000000000000000000000000000000000959493929190965096509650965096509650965090919293949596565b6000600860009054906101000a900473ffffffffffffffffffffffffffffffffffffffff16905090565b6a084595161401484a00000081565b606060048054610946906120a9565b80601f0160208091040260200160405190810160405280929190818152602001828054610972906120a9565b80156109bf5780601f10610994576101008083540402835291602001916109bf565b820191906000526020600020905b8154815290600101906020018083116109a257829003601f168201915b5050505050905090565b6000806109d4610c4b565b90506109e1818585610cfa565b600191505092915050565b6509184e72a00081565b83421115610a3b57836040517f62791302000000000000000000000000000000000000000000000000000000008152600401610a329190611cbd565b60405180910390fd5b60007f6e71edae12b1b97f4d1f60370fef10105fa2faae0126114a169c64845d6126c9888888610a6a8c611183565b89604051602001610a8096959493929190612270565b6040516020818303038152906040528051906020012090506000610aa3826111da565b90506000610ab3828787876111f4565b90508973ffffffffffffffffffffffffffffffffffffffff168173ffffffffffffffffffffffffffffffffffffffff1614610b2757808a6040517f4b800e46000000000000000000000000000000000000000000000000000000008152600401610b1e9291906122d1565b60405180910390fd5b610b328a8a8a610c53565b50505050505050505050565b6000600160008473ffffffffffffffffffffffffffffffffffffffff1673ffffffffffffffffffffffffffffffffffffffff16815260200190815260200160002060008373ffffffffffffffffffffffffffffffffffffffff1673ffffffffffffffffffffffffffffffffffffffff16815260200190815260200160002054905092915050565b610bcd610ef5565b600073ffffffffffffffffffffffffffffffffffffffff168173ffffffffffffffffffffffffffffffffffffffff1603610c3f5760006040517f1e4fbdf7000000000000000000000000000000000000000000000000000000008152600401610c369190611c93565b60405180910390fd5b610c4881610f7c565b50565b600033905090565b610c608383836001611224565b505050565b6000610c718484610b3e565b90507fffffffffffffffffffffffffffffffffffffffffffffffffffffffffffffffff811015610cf45781811015610ce4578281836040517ffb8f41b2000000000000000000000000000000000000000000000000000000008152600401610cdb939291906122fa565b60405180910390fd5b610cf384848484036000611224565b5b50505050565b600073ffffffffffffffffffffffffffffffffffffffff168373ffffffffffffffffffffffffffffffffffffffff1603610d6c5760006040517f96c6fd1e000000000000000000000000000000000000000000000000000000008152600401610d639190611c93565b60405180910390fd5b600073ffffffffffffffffffffffffffffffffffffffff168273ffffffffffffffffffffffffffffffffffffffff1603610dde5760006040517fec442f05000000000000000000000000000000000000000000000000000000008152600401610dd59190611c93565b60405180910390fd5b610de98383836113fb565b505050565b600260095403610e2a576040517f3ee5aeb500000000000000000000000000000000000000000000000000000000815260040160405180910390fd5b6002600981905550565b6001600981905550565b60007f000000000000000000000000000000000000000000000000000000000000000073ffffffffffffffffffffffffffffffffffffffff163073ffffffffffffffffffffffffffffffffffffffff16148015610eba57507f000000000000000000000000000000000000000000000000000000000000000046145b15610ee7577f00000000000000000000000000000000000000000000000000000000000000009050610ef2565b610eef611620565b90505b90565b610efd610c4b565b73ffffffffffffffffffffffffffffffffffffffff16610f1b6108fe565b73ffffffffffffffffffffffffffffffffffffffff1614610f7a57610f3e610c4b565b6040517f118cdaa7000000000000000000000000000000000000000000000000000000008152600401610f719190611c93565b60405180910390fd5b565b6000600860009054906101000a900473ffffffffffffffffffffffffffffffffffffffff16905081600860006101000a81548173ffffffffffffffffffffffffffffffffffffffff021916908373ffffffffffffffffffffffffffffffffffffffff1602179055508173ffffffffffffffffffffffffffffffffffffffff168173ffffffffffffffffffffffffffffffffffffffff167f8be0079c531659141344cd1fd0a4f28419497f9722a3daafe3b4186f6b6457e060405160405180910390a35050565b600073ffffffffffffffffffffffffffffffffffffffff168273ffffffffffffffffffffffffffffffffffffffff16036110b45760006040517fec442f050000000000000000000000000000000000000000000000000000000081526004016110ab9190611c93565b60405180910390fd5b6110c0600083836113fb565b5050565b6000600760008373ffffffffffffffffffffffffffffffffffffffff1673ffffffffffffffffffffffffffffffffffffffff168152602001908152602001600020549050919050565b606061114360057f00000000000000000000000000000000000000000000000000000000000000006116b690919063ffffffff16565b905090565b606061117e60067f00000000000000000000000000000000000000000000000000000000000000006116b690919063ffffffff16565b905090565b6000600760008373ffffffffffffffffffffffffffffffffffffffff1673ffffffffffffffffffffffffffffffffffffffff1681526020019081526020016000206000815480929190600101919050559050919050565b60006111ed6111e7610e3e565b83611766565b9050919050565b600080600080611206888888886117a7565b925092509250611216828261189b565b829350505050949350505050565b600073ffffffffffffffffffffffffffffffffffffffff168473ffffffffffffffffffffffffffffffffffffffff16036112965760006040517fe602df0500000000000000000000000000000000000000000000000000000000815260040161128d9190611c93565b60405180910390fd5b600073ffffffffffffffffffffffffffffffffffffffff168373ffffffffffffffffffffffffffffffffffffffff16036113085760006040517f94280d620000000000000000000000000000000000000000000000000000000081526004016112ff9190611c93565b60405180910390fd5b81600160008673ffffffffffffffffffffffffffffffffffffffff1673ffffffffffffffffffffffffffffffffffffffff16815260200190815260200160002060008573ffffffffffffffffffffffffffffffffffffffff1673ffffffffffffffffffffffffffffffffffffffff1681526020019081526020016000208190555080156113f5578273ffffffffffffffffffffffffffffffffffffffff168473ffffffffffffffffffffffffffffffffffffffff167f8c5be1e5ebec7d5bd14f71427d1e84f3dd0314c0f7b2291e5b200ac8c7c3b925846040516113ec9190611cbd565b60405180910390a35b50505050565b600073ffffffffffffffffffffffffffffffffffffffff168373ffffffffffffffffffffffffffffffffffffffff160361144d5780600260008282546114419190612331565b92505081905550611520565b60008060008573ffffffffffffffffffffffffffffffffffffffff1673ffffffffffffffffffffffffffffffffffffffff168152602001908152602001600020549050818110156114d9578381836040517fe450d38c0000000000000000000000000000000000000000000000000000000081526004016114d0939291906122fa565b60405180910390fd5b8181036000808673ffffffffffffffffffffffffffffffffffffffff1673ffffffffffffffffffffffffffffffffffffffff16815260200190815260200160002081905550505b600073ffffffffffffffffffffffffffffffffffffffff168273ffffffffffffffffffffffffffffffffffffffff160361156957806002600082825403925050819055506115b6565b806000808473ffffffffffffffffffffffffffffffffffffffff1673ffffffffffffffffffffffffffffffffffffffff168152602001908152602001600020600082825401925050819055505b8173ffffffffffffffffffffffffffffffffffffffff168373ffffffffffffffffffffffffffffffffffffffff167fddf252ad1be2c89b69c2b068fc378daa952ba7f163c4a11628f55a4df523b3ef836040516116139190611cbd565b60405180910390a3505050565b60007f8b73c3c69bb8fe3d512ecc4cf759cc79239f7b179b0ffacaa9a75d522b39400f7f00000000000000000000000000000000000000000000000000000000000000007f0000000000000000000000000000000000000000000000000000000000000000463060405160200161169b959493929190612365565b60405160208183030381529060405280519060200120905090565b606060ff60001b83146116d3576116cc836119ff565b9050611760565b8180546116df906120a9565b80601f016020809104026020016040519081016040528092919081815260200182805461170b906120a9565b80156117585780601f1061172d57610100808354040283529160200191611758565b820191906000526020600020905b81548152906001019060200180831161173b57829003601f168201915b505050505090505b92915050565b60006040517f190100000000000000000000000000000000000000000000000000000000000081528360028201528260228201526042812091505092915050565b60008060007f7fffffffffffffffffffffffffffffff5d576e7357a4501ddfe92f46681b20a08460001c11156117e7576000600385925092509250611891565b60006001888888886040516000815260200160405260405161180c94939291906123b8565b6020604051602081039080840390855afa15801561182e573d6000803e3d6000fd5b505050602060405103519050600073ffffffffffffffffffffffffffffffffffffffff168173ffffffffffffffffffffffffffffffffffffffff160361188257600060016000801b93509350935050611891565b8060008060001b935093509350505b9450945094915050565b600060038111156118af576118ae6123fd565b5b8260038111156118c2576118c16123fd565b5b03156119fb57600160038111156118dc576118db6123fd565b5b8260038111156118ef576118ee6123fd565b5b03611926576040517ff645eedf00000000000000000000000000000000000000000000000000000000815260040160405180910390fd5b6002600381111561193a576119396123fd565b5b82600381111561194d5761194c6123fd565b5b03611992578060001c6040517ffce698f70000000000000000000000000000000000000000000000000000000081526004016119899190611cbd565b60405180910390fd5b6003808111156119a5576119a46123fd565b5b8260038111156119b8576119b76123fd565b5b036119fa57806040517fd78bce0c0000000000000000000000000000000000000000000000000000000081526004016119f19190611d7b565b60405180910390fd5b5b5050565b60606000611a0c83611a73565b90506000602067ffffffffffffffff811115611a2b57611a2a612241565b5b6040519080825280601f01601f191660200182016040528015611a5d5781602001600182028036833780820191505090505b5090508181528360208201528092505050919050565b60008060ff8360001c169050601f811115611aba576040517fb3512b0c00000000000000000000000000000000000000000000000000000000815260040160405180910390fd5b80915050919050565b600081519050919050565b600082825260208201905092915050565b60005b83811015611afd578082015181840152602081019050611ae2565b60008484015250505050565b6000601f19601f8301169050919050565b6000611b2582611ac3565b611b2f8185611ace565b9350611b3f818560208601611adf565b611b4881611b09565b840191505092915050565b60006020820190508181036000830152611b6d8184611b1a565b905092915050565b600080fd5b600073ffffffffffffffffffffffffffffffffffffffff82169050919050565b6000611ba582611b7a565b9050919050565b611bb581611b9a565b8114611bc057600080fd5b50565b600081359050611bd281611bac565b92915050565b6000819050919050565b611beb81611bd8565b8114611bf657600080fd5b50565b600081359050611c0881611be2565b92915050565b60008060408385031215611c2557611c24611b75565b5b6000611c3385828601611bc3565b9250506020611c4485828601611bf9565b9150509250929050565b60008115159050919050565b611c6381611c4e565b82525050565b6000602082019050611c7e6000830184611c5a565b92915050565b611c8d81611b9a565b82525050565b6000602082019050611ca86000830184611c84565b92915050565b611cb781611bd8565b82525050565b6000602082019050611cd26000830184611cae565b92915050565b600080600060608486031215611cf157611cf0611b75565b5b6000611cff86828701611bc3565b9350506020611d1086828701611bc3565b9250506040611d2186828701611bf9565b9150509250925092565b600060ff82169050919050565b611d4181611d2b565b82525050565b6000602082019050611d5c6000830184611d38565b92915050565b6000819050919050565b611d7581611d62565b82525050565b6000602082019050611d906000830184611d6c565b92915050565b600060208284031215611dac57611dab611b75565b5b6000611dba84828501611bc3565b91505092915050565b60007fff0000000000000000000000000000000000000000000000000000000000000082169050919050565b611df881611dc3565b82525050565b600081519050919050565b600082825260208201905092915050565b6000819050602082019050919050565b611e3381611bd8565b82525050565b6000611e458383611e2a565b60208301905092915050565b6000602082019050919050565b6000611e6982611dfe565b611e738185611e09565b9350611e7e83611e1a565b8060005b83811015611eaf578151611e968882611e39565b9750611ea183611e51565b925050600181019050611e82565b5085935050505092915050565b600060e082019050611ed1600083018a611def565b8181036020830152611ee38189611b1a565b90508181036040830152611ef78188611b1a565b9050611f066060830187611cae565b611f136080830186611c84565b611f2060a0830185611d6c565b81810360c0830152611f328184611e5e565b905098975050505050505050565b611f4981611d2b565b8114611f5457600080fd5b50565b600081359050611f6681611f40565b92915050565b611f7581611d62565b8114611f8057600080fd5b50565b600081359050611f9281611f6c565b92915050565b600080600080600080600060e0888a031215611fb757611fb6611b75565b5b6000611fc58a828b01611bc3565b9750506020611fd68a828b01611bc3565b9650506040611fe78a828b01611bf9565b9550506060611ff88a828b01611bf9565b94505060806120098a828b01611f57565b93505060a061201a8a828b01611f83565b92505060c061202b8a828b01611f83565b91505092959891949750929550565b6000806040838503121561205157612050611b75565b5b600061205f85828601611bc3565b925050602061207085828601611bc3565b9150509250929050565b7f4e487b7100000000000000000000000000000000000000000000000000000000600052602260045260246000fd5b600060028204905060018216806120c157607f821691505b6020821081036120d4576120d361207a565b5b50919050565b7f496e73756666696369656e742045544820616d6f756e74000000000000000000600082015250565b6000612110601783611ace565b915061211b826120da565b602082019050919050565b6000602082019050818103600083015261213f81612103565b9050919050565b7f416c726561647920696e697469616c697a656400000000000000000000000000600082015250565b600061217c601383611ace565b915061218782612146565b602082019050919050565b600060208201905081810360008301526121ab8161216f565b9050919050565b7f4e487b7100000000000000000000000000000000000000000000000000000000600052601260045260246000fd5b7f4e487b7100000000000000000000000000000000000000000000000000000000600052601160045260246000fd5b600061221b82611bd8565b915061222683611bd8565b925082612236576122356121b2565b5b828204905092915050565b7f4e487b7100000000000000000000000000000000000000000000000000000000600052604160045260246000fd5b600060c0820190506122856000830189611d6c565b6122926020830188611c84565b61229f6040830187611c84565b6122ac6060830186611cae565b6122b96080830185611cae565b6122c660a0830184611cae565b979650505050505050565b60006040820190506122e66000830185611c84565b6122f36020830184611c84565b9392505050565b600060608201905061230f6000830186611c84565b61231c6020830185611cae565b6123296040830184611cae565b949350505050565b600061233c82611bd8565b915061234783611bd8565b925082820190508082111561235f5761235e6121e1565b5b92915050565b600060a08201905061237a6000830188611d6c565b6123876020830187611d6c565b6123946040830186611d6c565b6123a16060830185611cae565b6123ae6080830184611c84565b9695505050505050565b60006080820190506123cd6000830187611d6c565b6123da6020830186611d38565b6123e76040830185611d6c565b6123f46060830184611d6c565b95945050505050565b7f4e487b7100000000000000000000000000000000000000000000000000000000600052602160045260246000fdfea26469706673582212204e91ab3fe6b200a05d46687d0da3c4c6e657985ca662e146454ad8d4b2f2757064736f6c634300081c0033",
  "linkReferences": {},
  "deployedLinkReferences": {}
}