{
  "_format": "hh-sol-artifact-1",
  "contractName": "LSYToken",
  "sourceName": "contracts/LSYToken.sol",
  "abi": [
    {
      "inputs": [],
      "stateMutability": "nonpayable",
      "type": "constructor"
    },
    {
      "inputs": [],
      "name": "ECDSAInvalidSignature",
      "type": "error"
    },
    {
      "inputs": [
        {
          "internalType": "uint256",
          "name": "length",
          "type": "uint256"
        }
      ],
      "name": "ECDSAInvalidSignatureLength",
      "type": "error"
    },
    {
      "inputs": [
        {
          "internalType": "bytes32",
          "name": "s",
          "type": "bytes32"
        }
      ],
      "name": "ECDSAInvalidSignatureS",
      "type": "error"
    },
    {
      "inputs": [
        {
          "internalType": "address",
          "name": "spender",
          "type": "address"
        },
        {
          "internalType": "uint256",
          "name": "allowance",
          "type": "uint256"
        },
        {
          "internalType": "uint256",
          "name": "needed",
          "type": "uint256"
        }
      ],
      "name": "ERC20InsufficientAllowance",
      "type": "error"
    },
    {
      "inputs": [
        {
          "internalType": "address",
          "name": "sender",
          "type": "address"
        },
        {
          "internalType": "uint256",
          "name": "balance",
          "type": "uint256"
        },
        {
          "internalType": "uint256",
          "name": "needed",
          "type": "uint256"
        }
      ],
      "name": "ERC20InsufficientBalance",
      "type": "error"
    },
    {
      "inputs": [
        {
          "internalType": "address",
          "name": "approver",
          "type": "address"
        }
      ],
      "name": "ERC20InvalidApprover",
      "type": "error"
    },
    {
      "inputs": [
        {
          "internalType": "address",
          "name": "receiver",
          "type": "address"
        }
      ],
      "name": "ERC20InvalidReceiver",
      "type": "error"
    },
    {
      "inputs": [
        {
          "internalType": "address",
          "name": "sender",
          "type": "address"
        }
      ],
      "name": "ERC20InvalidSender",
      "type": "error"
    },
    {
      "inputs": [
        {
          "internalType": "address",
          "name": "spender",
          "type": "address"
        }
      ],
      "name": "ERC20InvalidSpender",
      "type": "error"
    },
    {
      "inputs": [
        {
          "internalType": "uint256",
          "name": "deadline",
          "type": "uint256"
        }
      ],
      "name": "ERC2612ExpiredSignature",
      "type": "error"
    },
    {
      "inputs": [
        {
          "internalType": "address",
          "name": "signer",
          "type": "address"
        },
        {
          "internalType": "address",
          "name": "owner",
          "type": "address"
        }
      ],
      "name": "ERC2612InvalidSigner",
      "type": "error"
    },
    {
      "inputs": [
        {
          "internalType": "address",
          "name": "account",
          "type": "address"
        },
        {
          "internalType": "uint256",
          "name": "currentNonce",
          "type": "uint256"
        }
      ],
      "name": "InvalidAccountNonce",
      "type": "error"
    },
    {
      "inputs": [],
      "name": "InvalidShortString",
      "type": "error"
    },
    {
      "inputs": [
        {
          "internalType": "address",
          "name": "owner",
          "type": "address"
        }
      ],
      "name": "OwnableInvalidOwner",
      "type": "error"
    },
    {
      "inputs": [
        {
          "internalType": "address",
          "name": "account",
          "type": "address"
        }
      ],
      "name": "OwnableUnauthorizedAccount",
      "type": "error"
    },
    {
      "inputs": [],
      "name": "ReentrancyGuardReentrantCall",
      "type": "error"
    },
    {
      "inputs": [
        {
          "internalType": "string",
          "name": "str",
          "type": "string"
        }
      ],
      "name": "StringTooLong",
      "type": "error"
    },
    {
      "anonymous": false,
      "inputs": [
        {
          "indexed": true,
          "internalType": "address",
          "name": "owner",
          "type": "address"
        },
        {
          "indexed": true,
          "internalType": "address",
          "name": "spender",
          "type": "address"
        },
        {
          "indexed": false,
          "internalType": "uint256",
          "name": "value",
          "type": "uint256"
        }
      ],
      "name": "Approval",
      "type": "event"
    },
    {
      "anonymous": false,
      "inputs": [],
      "name": "EIP712DomainChanged",
      "type": "event"
    },
    {
      "anonymous": false,
      "inputs": [
        {
          "indexed": true,
          "internalType": "address",
          "name": "previousOwner",
          "type": "address"
        },
        {
          "indexed": true,
          "internalType": "address",
          "name": "newOwner",
          "type": "address"
        }
      ],
      "name": "OwnershipTransferred",
      "type": "event"
    },
    {
      "anonymous": false,
      "inputs": [
        {
          "indexed": true,
          "internalType": "address",
          "name": "from",
          "type": "address"
        },
        {
          "indexed": true,
          "internalType": "address",
          "name": "to",
          "type": "address"
        },
        {
          "indexed": false,
          "internalType": "uint256",
          "name": "value",
          "type": "uint256"
        }
      ],
      "name": "Transfer",
      "type": "event"
    },
    {
      "inputs": [],
      "name": "DECIMALS",
      "outputs": [
        {
          "internalType": "uint256",
          "name": "",
          "type": "uint256"
        }
      ],
      "stateMutability": "view",
      "type": "function"
    },
    {
      "inputs": [],
      "name": "DOMAIN_SEPARATOR",
      "outputs": [
        {
          "internalType": "bytes32",
          "name": "",
          "type": "bytes32"
        }
      ],
      "stateMutability": "view",
      "type": "function"
    },
    {
      "inputs": [],
      "name": "TOKEN_PRICE",
      "outputs": [
        {
          "internalType": "uint256",
          "name": "",
          "type": "uint256"
        }
      ],
      "stateMutability": "view",
      "type": "function"
    },
    {
      "inputs": [],
      "name": "TOTAL_SUPPLY",
      "outputs": [
        {
          "internalType": "uint256",
          "name": "",
          "type": "uint256"
        }
      ],
      "stateMutability": "view",
      "type": "function"
    },
    {
      "inputs": [
        {
          "internalType": "address",
          "name": "owner",
          "type": "address"
        },
        {
          "internalType": "address",
          "name": "spender",
          "type": "address"
        }
      ],
      "name": "allowance",
      "outputs": [
        {
          "internalType": "uint256",
          "name": "",
          "type": "uint256"
        }
      ],
      "stateMutability": "view",
      "type": "function"
    },
    {
      "inputs": [
        {
          "internalType": "address",
          "name": "spender",
          "type": "address"
        },
        {
          "internalType": "uint256",
          "name": "value",
          "type": "uint256"
        }
      ],
      "name": "approve",
      "outputs": [
        {
          "internalType": "bool",
          "name": "",
          "type": "bool"
        }
      ],
      "stateMutability": "nonpayable",
      "type": "function"
    },
    {
      "inputs": [
        {
          "internalType": "address",
          "name": "account",
          "type": "address"
        }
      ],
      "name": "balanceOf",
      "outputs": [
        {
          "internalType": "uint256",
          "name": "",
          "type": "uint256"
        }
      ],
      "stateMutability": "view",
      "type": "function"
    },
    {
      "inputs": [],
      "name": "decimals",
      "outputs": [
        {
          "internalType": "uint8",
          "name": "",
          "type": "uint8"
        }
      ],
      "stateMutability": "view",
      "type": "function"
    },
    {
      "inputs": [],
      "name": "eip712Domain",
      "outputs": [
        {
          "internalType": "bytes1",
          "name": "fields",
          "type": "bytes1"
        },
        {
          "internalType": "string",
          "name": "name",
          "type": "string"
        },
        {
          "internalType": "string",
          "name": "version",
          "type": "string"
        },
        {
          "internalType": "uint256",
          "name": "chainId",
          "type": "uint256"
        },
        {
          "internalType": "address",
          "name": "verifyingContract",
          "type": "address"
        },
        {
          "internalType": "bytes32",
          "name": "salt",
          "type": "bytes32"
        },
        {
          "internalType": "uint256[]",
          "name": "extensions",
          "type": "uint256[]"
        }
      ],
      "stateMutability": "view",
      "type": "function"
    },
    {
      "inputs": [],
      "name": "name",
      "outputs": [
        {
          "internalType": "string",
          "name": "",
          "type": "string"
        }
      ],
      "stateMutability": "view",
      "type": "function"
    },
    {
      "inputs": [
        {
          "internalType": "address",
          "name": "owner",
          "type": "address"
        }
      ],
      "name": "nonces",
      "outputs": [
        {
          "internalType": "uint256",
          "name": "",
          "type": "uint256"
        }
      ],
      "stateMutability": "view",
      "type": "function"
    },
    {
      "inputs": [],
      "name": "owner",
      "outputs": [
        {
          "internalType": "address",
          "name": "",
          "type": "address"
        }
      ],
      "stateMutability": "view",
      "type": "function"
    },
    {
      "inputs": [
        {
          "internalType": "address",
          "name": "owner",
          "type": "address"
        },
        {
          "internalType": "address",
          "name": "spender",
          "type": "address"
        },
        {
          "internalType": "uint256",
          "name": "value",
          "type": "uint256"
        },
        {
          "internalType": "uint256",
          "name": "deadline",
          "type": "uint256"
        },
        {
          "internalType": "uint8",
          "name": "v",
          "type": "uint8"
        },
        {
          "internalType": "bytes32",
          "name": "r",
          "type": "bytes32"
        },
        {
          "internalType": "bytes32",
          "name": "s",
          "type": "bytes32"
        }
      ],
      "name": "permit",
      "outputs": [],
      "stateMutability": "nonpayable",
      "type": "function"
    },
    {
      "inputs": [],
      "name": "purchaseLSY",
      "outputs": [],
      "stateMutability": "payable",
      "type": "function"
    },
    {
      "inputs": [
        {
          "internalType": "address",
          "name": "stakingContract",
          "type": "address"
        }
      ],
      "name": "registerStakingPool",
      "outputs": [],
      "stateMutability": "nonpayable",
      "type": "function"
    },
    {
      "inputs": [],
      "name": "renounceOwnership",
      "outputs": [],
      "stateMutability": "nonpayable",
      "type": "function"
    },
    {
      "inputs": [],
      "name": "stakingPool",
      "outputs": [
        {
          "internalType": "address",
          "name": "",
          "type": "address"
        }
      ],
      "stateMutability": "view",
      "type": "function"
    },
    {
      "inputs": [],
      "name": "symbol",
      "outputs": [
        {
          "internalType": "string",
          "name": "",
          "type": "string"
        }
      ],
      "stateMutability": "view",
      "type": "function"
    },
    {
      "inputs": [],
      "name": "totalSupply",
      "outputs": [
        {
          "internalType": "uint256",
          "name": "",
          "type": "uint256"
        }
      ],
      "stateMutability": "view",
      "type": "function"
    },
    {
      "inputs": [
        {
          "internalType": "address",
          "name": "to",
          "type": "address"
        },
        {
          "internalType": "uint256",
          "name": "value",
          "type": "uint256"
        }
      ],
      "name": "transfer",
      "outputs": [
        {
          "internalType": "bool",
          "name": "",
          "type": "bool"
        }
      ],
      "stateMutability": "nonpayable",
      "type": "function"
    },
    {
      "inputs": [
        {
          "internalType": "address",
          "name": "from",
          "type": "address"
        },
        {
          "internalType": "address",
          "name": "to",
          "type": "address"
        },
        {
          "internalType": "uint256",
          "name": "value",
          "type": "uint256"
        }
      ],
      "name": "transferFrom",
      "outputs": [
        {
          "internalType": "bool",
          "name": "",
          "type": "bool"
        }
      ],
      "stateMutability": "nonpayable",
      "type": "function"
    },
    {
      "inputs": [
        {
          "internalType": "address",
          "name": "newOwner",
          "type": "address"
        }
      ],
      "name": "transferOwnership",
      "outputs": [],
      "stateMutability": "nonpayable",
      "type": "function"
    }
  ],
  "bytecode": "0x61016060405234801561001157600080fd5b50336040518060400160405280601181526020017f4c756e61725374616b696e675969656c64000000000000000000000000000000815250806040518060400160405280600181526020017f31000000000000000000000000000000000000000000000000000000000000008152506040518060400160405280601181526020017f4c756e61725374616b696e675969656c640000000000000000000000000000008152506040518060400160405280600381526020017f4c5359000000000000000000000000000000000000000000000000000000000081525081600390816100fb9190610996565b50806004908161010b9190610996565b50505061012260058361028c60201b90919060201c565b610120818152505061013e60068261028c60201b90919060201c565b6101408181525050818051906020012060e08181525050808051906020012061010081815250504660a0818152505061017b6102dc60201b60201c565b608081815250503073ffffffffffffffffffffffffffffffffffffffff1660c08173ffffffffffffffffffffffffffffffffffffffff1681525050505050600073ffffffffffffffffffffffffffffffffffffffff168173ffffffffffffffffffffffffffffffffffffffff160361022b5760006040517f1e4fbdf70000000000000000000000000000000000000000000000000000000081526004016102229190610aa9565b60405180910390fd5b61023a8161033760201b60201c565b5060016009819055506102876102546103fd60201b60201c565b60026012600a6102649190610c26565b620f42406102729190610c71565b61027c9190610ce2565b61042760201b60201c565b610f52565b60006020835110156102ae576102a7836104af60201b60201c565b90506102d6565b826102be8361051760201b60201c565b60000190816102cd9190610996565b5060ff60001b90505b92915050565b60007f8b73c3c69bb8fe3d512ecc4cf759cc79239f7b179b0ffacaa9a75d522b39400f60e05161010051463060405160200161031c959493929190610d3b565b60405160208183030381529060405280519060200120905090565b6000600860009054906101000a900473ffffffffffffffffffffffffffffffffffffffff16905081600860006101000a81548173ffffffffffffffffffffffffffffffffffffffff021916908373ffffffffffffffffffffffffffffffffffffffff1602179055508173ffffffffffffffffffffffffffffffffffffffff168173ffffffffffffffffffffffffffffffffffffffff167f8be0079c531659141344cd1fd0a4f28419497f9722a3daafe3b4186f6b6457e060405160405180910390a35050565b6000600860009054906101000a900473ffffffffffffffffffffffffffffffffffffffff16905090565b600073ffffffffffffffffffffffffffffffffffffffff168273ffffffffffffffffffffffffffffffffffffffff16036104995760006040517fec442f050000000000000000000000000000000000000000000000000000000081526004016104909190610aa9565b60405180910390fd5b6104ab6000838361052160201b60201c565b5050565b600080829050601f815111156104fc57826040517f305a27a90000000000000000000000000000000000000000000000000000000081526004016104f39190610e13565b60405180910390fd5b80518161050890610e65565b60001c1760001b915050919050565b6000819050919050565b600073ffffffffffffffffffffffffffffffffffffffff168373ffffffffffffffffffffffffffffffffffffffff16036105735780600260008282546105679190610ecc565b92505081905550610646565b60008060008573ffffffffffffffffffffffffffffffffffffffff1673ffffffffffffffffffffffffffffffffffffffff168152602001908152602001600020549050818110156105ff578381836040517fe450d38c0000000000000000000000000000000000000000000000000000000081526004016105f693929190610f00565b60405180910390fd5b8181036000808673ffffffffffffffffffffffffffffffffffffffff1673ffffffffffffffffffffffffffffffffffffffff16815260200190815260200160002081905550505b600073ffffffffffffffffffffffffffffffffffffffff168273ffffffffffffffffffffffffffffffffffffffff160361068f57806002600082825403925050819055506106dc565b806000808473ffffffffffffffffffffffffffffffffffffffff1673ffffffffffffffffffffffffffffffffffffffff168152602001908152602001600020600082825401925050819055505b8173ffffffffffffffffffffffffffffffffffffffff168373ffffffffffffffffffffffffffffffffffffffff167fddf252ad1be2c89b69c2b068fc378daa952ba7f163c4a11628f55a4df523b3ef836040516107399190610f37565b60405180910390a3505050565b600081519050919050565b7f4e487b7100000000000000000000000000000000000000000000000000000000600052604160045260246000fd5b7f4e487b7100000000000000000000000000000000000000000000000000000000600052602260045260246000fd5b600060028204905060018216806107c757607f821691505b6020821081036107da576107d9610780565b5b50919050565b60008190508160005260206000209050919050565b60006020601f8301049050919050565b600082821b905092915050565b6000600883026108427fffffffffffffffffffffffffffffffffffffffffffffffffffffffffffffffff82610805565b61084c8683610805565b95508019841693508086168417925050509392505050565b6000819050919050565b6000819050919050565b600061089361088e61088984610864565b61086e565b610864565b9050919050565b6000819050919050565b6108ad83610878565b6108c16108b98261089a565b848454610812565b825550505050565b600090565b6108d66108c9565b6108e18184846108a4565b505050565b5b81811015610905576108fa6000826108ce565b6001810190506108e7565b5050565b601f82111561094a5761091b816107e0565b610924846107f5565b81016020851015610933578190505b61094761093f856107f5565b8301826108e6565b50505b505050565b600082821c905092915050565b600061096d6000198460080261094f565b1980831691505092915050565b6000610986838361095c565b9150826002028217905092915050565b61099f82610746565b67ffffffffffffffff8111156109b8576109b7610751565b5b6109c282546107af565b6109cd828285610909565b600060209050601f831160018114610a0057600084156109ee578287015190505b6109f8858261097a565b865550610a60565b601f198416610a0e866107e0565b60005b82811015610a3657848901518255600182019150602085019450602081019050610a11565b86831015610a535784890151610a4f601f89168261095c565b8355505b6001600288020188555050505b505050505050565b600073ffffffffffffffffffffffffffffffffffffffff82169050919050565b6000610a9382610a68565b9050919050565b610aa381610a88565b82525050565b6000602082019050610abe6000830184610a9a565b92915050565b7f4e487b7100000000000000000000000000000000000000000000000000000000600052601160045260246000fd5b60008160011c9050919050565b6000808291508390505b6001851115610b4a57808604811115610b2657610b25610ac4565b5b6001851615610b355780820291505b8081029050610b4385610af3565b9450610b0a565b94509492505050565b600082610b635760019050610c1f565b81610b715760009050610c1f565b8160018114610b875760028114610b9157610bc0565b6001915050610c1f565b60ff841115610ba357610ba2610ac4565b5b8360020a915084821115610bba57610bb9610ac4565b5b50610c1f565b5060208310610133831016604e8410600b8410161715610bf55782820a905083811115610bf057610bef610ac4565b5b610c1f565b610c028484846001610b00565b92509050818404811115610c1957610c18610ac4565b5b81810290505b9392505050565b6000610c3182610864565b9150610c3c83610864565b9250610c697fffffffffffffffffffffffffffffffffffffffffffffffffffffffffffffffff8484610b53565b905092915050565b6000610c7c82610864565b9150610c8783610864565b9250828202610c9581610864565b91508282048414831517610cac57610cab610ac4565b5b5092915050565b7f4e487b7100000000000000000000000000000000000000000000000000000000600052601260045260246000fd5b6000610ced82610864565b9150610cf883610864565b925082610d0857610d07610cb3565b5b828204905092915050565b6000819050919050565b610d2681610d13565b82525050565b610d3581610864565b82525050565b600060a082019050610d506000830188610d1d565b610d5d6020830187610d1d565b610d6a6040830186610d1d565b610d776060830185610d2c565b610d846080830184610a9a565b9695505050505050565b600082825260208201905092915050565b60005b83811015610dbd578082015181840152602081019050610da2565b60008484015250505050565b6000601f19601f8301169050919050565b6000610de582610746565b610def8185610d8e565b9350610dff818560208601610d9f565b610e0881610dc9565b840191505092915050565b60006020820190508181036000830152610e2d8184610dda565b905092915050565b600081519050919050565b6000819050602082019050919050565b6000610e5c8251610d13565b80915050919050565b6000610e7082610e35565b82610e7a84610e40565b9050610e8581610e50565b92506020821015610ec557610ec07fffffffffffffffffffffffffffffffffffffffffffffffffffffffffffffffff83602003600802610805565b831692505b5050919050565b6000610ed782610864565b9150610ee283610864565b9250828201905080821115610efa57610ef9610ac4565b5b92915050565b6000606082019050610f156000830186610a9a565b610f226020830185610d2c565b610f2f6040830184610d2c565b949350505050565b6000602082019050610f4c6000830184610d2c565b92915050565b60805160a05160c05160e0516101005161012051610140516126ac610fac60003960006111db015260006111a0015260006116f0015260006116cf01526000610ecc01526000610f2201526000610f4b01526126ac6000f3fe6080604052600436106101355760003560e01c80637469b929116100ab57806395d89b411161006f57806395d89b4114610401578063a9059cbb1461042c578063d2d8cb6714610469578063d505accf14610494578063dd62ed3e146104bd578063f2fde38b146104fa57610135565b80637469b929146103145780637ecebe001461033d57806384b0196e1461037a5780638da5cb5b146103ab578063902d55a5146103d657610135565b80632e0f2625116100fd5780632e0f26251461023557806330ddf15b14610260578063313ce5671461026a5780633644e5151461029557806370a08231146102c0578063715018a6146102fd57610135565b806306fdde031461013a578063095ea7b3146101655780630c56ae3b146101a257806318160ddd146101cd57806323b872dd146101f8575b600080fd5b34801561014657600080fd5b5061014f610523565b60405161015c9190611bdd565b60405180910390f35b34801561017157600080fd5b5061018c60048036038101906101879190611c98565b6105b5565b6040516101999190611cf3565b60405180910390f35b3480156101ae57600080fd5b506101b76105d8565b6040516101c49190611d1d565b60405180910390f35b3480156101d957600080fd5b506101e26105fe565b6040516101ef9190611d47565b60405180910390f35b34801561020457600080fd5b5061021f600480360381019061021a9190611d62565b610608565b60405161022c9190611cf3565b60405180910390f35b34801561024157600080fd5b5061024a610637565b6040516102579190611d47565b60405180910390f35b61026861063c565b005b34801561027657600080fd5b5061027f610720565b60405161028c9190611dd1565b60405180910390f35b3480156102a157600080fd5b506102aa610729565b6040516102b79190611e05565b60405180910390f35b3480156102cc57600080fd5b506102e760048036038101906102e29190611e20565b610738565b6040516102f49190611d47565b60405180910390f35b34801561030957600080fd5b50610312610780565b005b34801561032057600080fd5b5061033b60048036038101906103369190611e20565b610794565b005b34801561034957600080fd5b50610364600480360381019061035f9190611e20565b6108bc565b6040516103719190611d47565b60405180910390f35b34801561038657600080fd5b5061038f6108ce565b6040516103a29796959493929190611f46565b60405180910390f35b3480156103b757600080fd5b506103c0610978565b6040516103cd9190611d1d565b60405180910390f35b3480156103e257600080fd5b506103eb6109a2565b6040516103f89190611d47565b60405180910390f35b34801561040d57600080fd5b506104166109c1565b6040516104239190611bdd565b60405180910390f35b34801561043857600080fd5b50610453600480360381019061044e9190611c98565b610a53565b6040516104609190611cf3565b60405180910390f35b34801561047557600080fd5b5061047e610a76565b60405161048b9190611d47565b60405180910390f35b3480156104a057600080fd5b506104bb60048036038101906104b69190612022565b610a80565b005b3480156104c957600080fd5b506104e460048036038101906104df91906120c4565b610bc8565b6040516104f19190611d47565b60405180910390f35b34801561050657600080fd5b50610521600480360381019061051c9190611e20565b610c4f565b005b60606003805461053290612133565b80601f016020809104026020016040519081016040528092919081815260200182805461055e90612133565b80156105ab5780601f10610580576101008083540402835291602001916105ab565b820191906000526020600020905b81548152906001019060200180831161058e57829003601f168201915b5050505050905090565b6000806105c0610cd5565b90506105cd818585610cdd565b600191505092915050565b600a60009054906101000a900473ffffffffffffffffffffffffffffffffffffffff1681565b6000600254905090565b600080610613610cd5565b9050610620858285610cef565b61062b858585610d84565b60019150509392505050565b601281565b610644610e78565b60003411610687576040517f08c379a000000000000000000000000000000000000000000000000000000000815260040161067e906121b0565b60405180910390fd5b60006012600a6106979190612332565b655af3107a4000346106a991906123ac565b6106b391906123dd565b90506106c76106c0610978565b3383610d84565b6106cf610978565b73ffffffffffffffffffffffffffffffffffffffff166108fc349081150290604051600060405180830381858888f19350505050158015610714573d6000803e3d6000fd5b505061071e610ebe565b565b60006012905090565b6000610733610ec8565b905090565b60008060008373ffffffffffffffffffffffffffffffffffffffff1673ffffffffffffffffffffffffffffffffffffffff168152602001908152602001600020549050919050565b610788610f7f565b6107926000611006565b565b600073ffffffffffffffffffffffffffffffffffffffff16600a60009054906101000a900473ffffffffffffffffffffffffffffffffffffffff1673ffffffffffffffffffffffffffffffffffffffff1614610825576040517f08c379a000000000000000000000000000000000000000000000000000000000815260040161081c9061246b565b60405180910390fd5b80600a60006101000a81548173ffffffffffffffffffffffffffffffffffffffff021916908373ffffffffffffffffffffffffffffffffffffffff1602179055506108b9600a60009054906101000a900473ffffffffffffffffffffffffffffffffffffffff1660026012600a61089c9190612332565b620f42406108aa91906123dd565b6108b491906123ac565b6110cc565b50565b60006108c78261114e565b9050919050565b6000606080600080600060606108e2611197565b6108ea6111d2565b46306000801b600067ffffffffffffffff81111561090b5761090a61248b565b5b6040519080825280602002602001820160405280156109395781602001602082028036833780820191505090505b507f0f00000000000000000000000000000000000000000000000000000000000000959493929190965096509650965096509650965090919293949596565b6000600860009054906101000a900473ffffffffffffffffffffffffffffffffffffffff16905090565b6012600a6109b09190612332565b620f42406109be91906123dd565b81565b6060600480546109d090612133565b80601f01602080910402602001604051908101604052809291908181526020018280546109fc90612133565b8015610a495780601f10610a1e57610100808354040283529160200191610a49565b820191906000526020600020905b815481529060010190602001808311610a2c57829003601f168201915b5050505050905090565b600080610a5e610cd5565b9050610a6b818585610d84565b600191505092915050565b655af3107a400081565b83421115610ac557836040517f62791302000000000000000000000000000000000000000000000000000000008152600401610abc9190611d47565b60405180910390fd5b60007f6e71edae12b1b97f4d1f60370fef10105fa2faae0126114a169c64845d6126c9888888610af48c61120d565b89604051602001610b0a969594939291906124ba565b6040516020818303038152906040528051906020012090506000610b2d82611264565b90506000610b3d8287878761127e565b90508973ffffffffffffffffffffffffffffffffffffffff168173ffffffffffffffffffffffffffffffffffffffff1614610bb157808a6040517f4b800e46000000000000000000000000000000000000000000000000000000008152600401610ba892919061251b565b60405180910390fd5b610bbc8a8a8a610cdd565b50505050505050505050565b6000600160008473ffffffffffffffffffffffffffffffffffffffff1673ffffffffffffffffffffffffffffffffffffffff16815260200190815260200160002060008373ffffffffffffffffffffffffffffffffffffffff1673ffffffffffffffffffffffffffffffffffffffff16815260200190815260200160002054905092915050565b610c57610f7f565b600073ffffffffffffffffffffffffffffffffffffffff168173ffffffffffffffffffffffffffffffffffffffff1603610cc95760006040517f1e4fbdf7000000000000000000000000000000000000000000000000000000008152600401610cc09190611d1d565b60405180910390fd5b610cd281611006565b50565b600033905090565b610cea83838360016112ae565b505050565b6000610cfb8484610bc8565b90507fffffffffffffffffffffffffffffffffffffffffffffffffffffffffffffffff811015610d7e5781811015610d6e578281836040517ffb8f41b2000000000000000000000000000000000000000000000000000000008152600401610d6593929190612544565b60405180910390fd5b610d7d848484840360006112ae565b5b50505050565b600073ffffffffffffffffffffffffffffffffffffffff168373ffffffffffffffffffffffffffffffffffffffff1603610df65760006040517f96c6fd1e000000000000000000000000000000000000000000000000000000008152600401610ded9190611d1d565b60405180910390fd5b600073ffffffffffffffffffffffffffffffffffffffff168273ffffffffffffffffffffffffffffffffffffffff1603610e685760006040517fec442f05000000000000000000000000000000000000000000000000000000008152600401610e5f9190611d1d565b60405180910390fd5b610e73838383611485565b505050565b600260095403610eb4576040517f3ee5aeb500000000000000000000000000000000000000000000000000000000815260040160405180910390fd5b6002600981905550565b6001600981905550565b60007f000000000000000000000000000000000000000000000000000000000000000073ffffffffffffffffffffffffffffffffffffffff163073ffffffffffffffffffffffffffffffffffffffff16148015610f4457507f000000000000000000000000000000000000000000000000000000000000000046145b15610f71577f00000000000000000000000000000000000000000000000000000000000000009050610f7c565b610f796116aa565b90505b90565b610f87610cd5565b73ffffffffffffffffffffffffffffffffffffffff16610fa5610978565b73ffffffffffffffffffffffffffffffffffffffff161461100457610fc8610cd5565b6040517f118cdaa7000000000000000000000000000000000000000000000000000000008152600401610ffb9190611d1d565b60405180910390fd5b565b6000600860009054906101000a900473ffffffffffffffffffffffffffffffffffffffff16905081600860006101000a81548173ffffffffffffffffffffffffffffffffffffffff021916908373ffffffffffffffffffffffffffffffffffffffff1602179055508173ffffffffffffffffffffffffffffffffffffffff168173ffffffffffffffffffffffffffffffffffffffff167f8be0079c531659141344cd1fd0a4f28419497f9722a3daafe3b4186f6b6457e060405160405180910390a35050565b600073ffffffffffffffffffffffffffffffffffffffff168273ffffffffffffffffffffffffffffffffffffffff160361113e5760006040517fec442f050000000000000000000000000000000000000000000000000000000081526004016111359190611d1d565b60405180910390fd5b61114a60008383611485565b5050565b6000600760008373ffffffffffffffffffffffffffffffffffffffff1673ffffffffffffffffffffffffffffffffffffffff168152602001908152602001600020549050919050565b60606111cd60057f000000000000000000000000000000000000000000000000000000000000000061174090919063ffffffff16565b905090565b606061120860067f000000000000000000000000000000000000000000000000000000000000000061174090919063ffffffff16565b905090565b6000600760008373ffffffffffffffffffffffffffffffffffffffff1673ffffffffffffffffffffffffffffffffffffffff1681526020019081526020016000206000815480929190600101919050559050919050565b6000611277611271610ec8565b836117f0565b9050919050565b60008060008061129088888888611831565b9250925092506112a08282611925565b829350505050949350505050565b600073ffffffffffffffffffffffffffffffffffffffff168473ffffffffffffffffffffffffffffffffffffffff16036113205760006040517fe602df050000000000000000000000000000000000000000000000000000000081526004016113179190611d1d565b60405180910390fd5b600073ffffffffffffffffffffffffffffffffffffffff168373ffffffffffffffffffffffffffffffffffffffff16036113925760006040517f94280d620000000000000000000000000000000000000000000000000000000081526004016113899190611d1d565b60405180910390fd5b81600160008673ffffffffffffffffffffffffffffffffffffffff1673ffffffffffffffffffffffffffffffffffffffff16815260200190815260200160002060008573ffffffffffffffffffffffffffffffffffffffff1673ffffffffffffffffffffffffffffffffffffffff16815260200190815260200160002081905550801561147f578273ffffffffffffffffffffffffffffffffffffffff168473ffffffffffffffffffffffffffffffffffffffff167f8c5be1e5ebec7d5bd14f71427d1e84f3dd0314c0f7b2291e5b200ac8c7c3b925846040516114769190611d47565b60405180910390a35b50505050565b600073ffffffffffffffffffffffffffffffffffffffff168373ffffffffffffffffffffffffffffffffffffffff16036114d75780600260008282546114cb919061257b565b925050819055506115aa565b60008060008573ffffffffffffffffffffffffffffffffffffffff1673ffffffffffffffffffffffffffffffffffffffff16815260200190815260200160002054905081811015611563578381836040517fe450d38c00000000000000000000000000000000000000000000000000000000815260040161155a93929190612544565b60405180910390fd5b8181036000808673ffffffffffffffffffffffffffffffffffffffff1673ffffffffffffffffffffffffffffffffffffffff16815260200190815260200160002081905550505b600073ffffffffffffffffffffffffffffffffffffffff168273ffffffffffffffffffffffffffffffffffffffff16036115f35780600260008282540392505081905550611640565b806000808473ffffffffffffffffffffffffffffffffffffffff1673ffffffffffffffffffffffffffffffffffffffff168152602001908152602001600020600082825401925050819055505b8173ffffffffffffffffffffffffffffffffffffffff168373ffffffffffffffffffffffffffffffffffffffff167fddf252ad1be2c89b69c2b068fc378daa952ba7f163c4a11628f55a4df523b3ef8360405161169d9190611d47565b60405180910390a3505050565b60007f8b73c3c69bb8fe3d512ecc4cf759cc79239f7b179b0ffacaa9a75d522b39400f7f00000000000000000000000000000000000000000000000000000000000000007f000000000000000000000000000000000000000000000000000000000000000046306040516020016117259594939291906125af565b60405160208183030381529060405280519060200120905090565b606060ff60001b831461175d5761175683611a89565b90506117ea565b81805461176990612133565b80601f016020809104026020016040519081016040528092919081815260200182805461179590612133565b80156117e25780601f106117b7576101008083540402835291602001916117e2565b820191906000526020600020905b8154815290600101906020018083116117c557829003601f168201915b505050505090505b92915050565b60006040517f190100000000000000000000000000000000000000000000000000000000000081528360028201528260228201526042812091505092915050565b60008060007f7fffffffffffffffffffffffffffffff5d576e7357a4501ddfe92f46681b20a08460001c111561187157600060038592509250925061191b565b6000600188888888604051600081526020016040526040516118969493929190612602565b6020604051602081039080840390855afa1580156118b8573d6000803e3d6000fd5b505050602060405103519050600073ffffffffffffffffffffffffffffffffffffffff168173ffffffffffffffffffffffffffffffffffffffff160361190c57600060016000801b9350935093505061191b565b8060008060001b935093509350505b9450945094915050565b6000600381111561193957611938612647565b5b82600381111561194c5761194b612647565b5b0315611a85576001600381111561196657611965612647565b5b82600381111561197957611978612647565b5b036119b0576040517ff645eedf00000000000000000000000000000000000000000000000000000000815260040160405180910390fd5b600260038111156119c4576119c3612647565b5b8260038111156119d7576119d6612647565b5b03611a1c578060001c6040517ffce698f7000000000000000000000000000000000000000000000000000000008152600401611a139190611d47565b60405180910390fd5b600380811115611a2f57611a2e612647565b5b826003811115611a4257611a41612647565b5b03611a8457806040517fd78bce0c000000000000000000000000000000000000000000000000000000008152600401611a7b9190611e05565b60405180910390fd5b5b5050565b60606000611a9683611afd565b90506000602067ffffffffffffffff811115611ab557611ab461248b565b5b6040519080825280601f01601f191660200182016040528015611ae75781602001600182028036833780820191505090505b5090508181528360208201528092505050919050565b60008060ff8360001c169050601f811115611b44576040517fb3512b0c00000000000000000000000000000000000000000000000000000000815260040160405180910390fd5b80915050919050565b600081519050919050565b600082825260208201905092915050565b60005b83811015611b87578082015181840152602081019050611b6c565b60008484015250505050565b6000601f19601f8301169050919050565b6000611baf82611b4d565b611bb98185611b58565b9350611bc9818560208601611b69565b611bd281611b93565b840191505092915050565b60006020820190508181036000830152611bf78184611ba4565b905092915050565b600080fd5b600073ffffffffffffffffffffffffffffffffffffffff82169050919050565b6000611c2f82611c04565b9050919050565b611c3f81611c24565b8114611c4a57600080fd5b50565b600081359050611c5c81611c36565b92915050565b6000819050919050565b611c7581611c62565b8114611c8057600080fd5b50565b600081359050611c9281611c6c565b92915050565b60008060408385031215611caf57611cae611bff565b5b6000611cbd85828601611c4d565b9250506020611cce85828601611c83565b9150509250929050565b60008115159050919050565b611ced81611cd8565b82525050565b6000602082019050611d086000830184611ce4565b92915050565b611d1781611c24565b82525050565b6000602082019050611d326000830184611d0e565b92915050565b611d4181611c62565b82525050565b6000602082019050611d5c6000830184611d38565b92915050565b600080600060608486031215611d7b57611d7a611bff565b5b6000611d8986828701611c4d565b9350506020611d9a86828701611c4d565b9250506040611dab86828701611c83565b9150509250925092565b600060ff82169050919050565b611dcb81611db5565b82525050565b6000602082019050611de66000830184611dc2565b92915050565b6000819050919050565b611dff81611dec565b82525050565b6000602082019050611e1a6000830184611df6565b92915050565b600060208284031215611e3657611e35611bff565b5b6000611e4484828501611c4d565b91505092915050565b60007fff0000000000000000000000000000000000000000000000000000000000000082169050919050565b611e8281611e4d565b82525050565b600081519050919050565b600082825260208201905092915050565b6000819050602082019050919050565b611ebd81611c62565b82525050565b6000611ecf8383611eb4565b60208301905092915050565b6000602082019050919050565b6000611ef382611e88565b611efd8185611e93565b9350611f0883611ea4565b8060005b83811015611f39578151611f208882611ec3565b9750611f2b83611edb565b925050600181019050611f0c565b5085935050505092915050565b600060e082019050611f5b600083018a611e79565b8181036020830152611f6d8189611ba4565b90508181036040830152611f818188611ba4565b9050611f906060830187611d38565b611f9d6080830186611d0e565b611faa60a0830185611df6565b81810360c0830152611fbc8184611ee8565b905098975050505050505050565b611fd381611db5565b8114611fde57600080fd5b50565b600081359050611ff081611fca565b92915050565b611fff81611dec565b811461200a57600080fd5b50565b60008135905061201c81611ff6565b92915050565b600080600080600080600060e0888a03121561204157612040611bff565b5b600061204f8a828b01611c4d565b97505060206120608a828b01611c4d565b96505060406120718a828b01611c83565b95505060606120828a828b01611c83565b94505060806120938a828b01611fe1565b93505060a06120a48a828b0161200d565b92505060c06120b58a828b0161200d565b91505092959891949750929550565b600080604083850312156120db576120da611bff565b5b60006120e985828601611c4d565b92505060206120fa85828601611c4d565b9150509250929050565b7f4e487b7100000000000000000000000000000000000000000000000000000000600052602260045260246000fd5b6000600282049050600182168061214b57607f821691505b60208210810361215e5761215d612104565b5b50919050565b7f496e73756666696369656e742045544820616d6f756e74000000000000000000600082015250565b600061219a601783611b58565b91506121a582612164565b602082019050919050565b600060208201905081810360008301526121c98161218d565b9050919050565b7f4e487b7100000000000000000000000000000000000000000000000000000000600052601160045260246000fd5b60008160011c9050919050565b6000808291508390505b600185111561225657808604811115612232576122316121d0565b5b60018516156122415780820291505b808102905061224f856121ff565b9450612216565b94509492505050565b60008261226f576001905061232b565b8161227d576000905061232b565b8160018114612293576002811461229d576122cc565b600191505061232b565b60ff8411156122af576122ae6121d0565b5b8360020a9150848211156122c6576122c56121d0565b5b5061232b565b5060208310610133831016604e8410600b84101617156123015782820a9050838111156122fc576122fb6121d0565b5b61232b565b61230e848484600161220c565b92509050818404811115612325576123246121d0565b5b81810290505b9392505050565b600061233d82611c62565b915061234883611c62565b92506123757fffffffffffffffffffffffffffffffffffffffffffffffffffffffffffffffff848461225f565b905092915050565b7f4e487b7100000000000000000000000000000000000000000000000000000000600052601260045260246000fd5b60006123b782611c62565b91506123c283611c62565b9250826123d2576123d161237d565b5b828204905092915050565b60006123e882611c62565b91506123f383611c62565b925082820261240181611c62565b91508282048414831517612418576124176121d0565b5b5092915050565b7f416c726561647920696e697469616c697a656400000000000000000000000000600082015250565b6000612455601383611b58565b91506124608261241f565b602082019050919050565b6000602082019050818103600083015261248481612448565b9050919050565b7f4e487b7100000000000000000000000000000000000000000000000000000000600052604160045260246000fd5b600060c0820190506124cf6000830189611df6565b6124dc6020830188611d0e565b6124e96040830187611d0e565b6124f66060830186611d38565b6125036080830185611d38565b61251060a0830184611d38565b979650505050505050565b60006040820190506125306000830185611d0e565b61253d6020830184611d0e565b9392505050565b60006060820190506125596000830186611d0e565b6125666020830185611d38565b6125736040830184611d38565b949350505050565b600061258682611c62565b915061259183611c62565b92508282019050808211156125a9576125a86121d0565b5b92915050565b600060a0820190506125c46000830188611df6565b6125d16020830187611df6565b6125de6040830186611df6565b6125eb6060830185611d38565b6125f86080830184611d0e565b9695505050505050565b60006080820190506126176000830187611df6565b6126246020830186611dc2565b6126316040830185611df6565b61263e6060830184611df6565b95945050505050565b7f4e487b7100000000000000000000000000000000000000000000000000000000600052602160045260246000fdfea2646970667358221220b230750e30878f5a354fcdf350f07674576497902807d1d2dd6843e590c7fc3c64736f6c634300081c0033",
  "linkReferences": {},
  "deployedLinkReferences": {}
}