{
  "_format": "hh-sol-artifact-1",
  "contractName": "Staking",
  "sourceName": "contracts/Staking.sol",
  "abi": [
    {
      "inputs": [
        {
          "internalType": "address",
          "name": "_lsyToken",
          "type": "address"
        }
      ],
      "stateMutability": "nonpayable",
      "type": "constructor"
    },
    {
      "inputs": [
        {
          "internalType": "address",
          "name": "owner",
          "type": "address"
        }
      ],
      "name": "OwnableInvalidOwner",
      "type": "error"
    },
    {
      "inputs": [
        {
          "internalType": "address",
          "name": "account",
          "type": "address"
        }
      ],
      "name": "OwnableUnauthorizedAccount",
      "type": "error"
    },
    {
      "inputs": [],
      "name": "ReentrancyGuardReentrantCall",
      "type": "error"
    },
    {
      "inputs": [
        {
          "internalType": "address",
          "name": "token",
          "type": "address"
        }
      ],
      "name": "SafeERC20FailedOperation",
      "type": "error"
    },
    {
      "anonymous": false,
      "inputs": [
        {
          "indexed": true,
          "internalType": "address",
          "name": "user",
          "type": "address"
        },
        {
          "indexed": false,
          "internalType": "uint256",
          "name": "amount",
          "type": "uint256"
        }
      ],
      "name": "ClaimedRewards",
      "type": "event"
    },
    {
      "anonymous": false,
      "inputs": [
        {
          "indexed": true,
          "internalType": "address",
          "name": "previousOwner",
          "type": "address"
        },
        {
          "indexed": true,
          "internalType": "address",
          "name": "newOwner",
          "type": "address"
        }
      ],
      "name": "OwnershipTransferred",
      "type": "event"
    },
    {
      "anonymous": false,
      "inputs": [
        {
          "indexed": true,
          "internalType": "address",
          "name": "user",
          "type": "address"
        },
        {
          "indexed": false,
          "internalType": "uint256",
          "name": "amount",
          "type": "uint256"
        }
      ],
      "name": "StakedLSY",
      "type": "event"
    },
    {
      "anonymous": false,
      "inputs": [
        {
          "indexed": true,
          "internalType": "address",
          "name": "user",
          "type": "address"
        },
        {
          "indexed": false,
          "internalType": "uint256",
          "name": "amount",
          "type": "uint256"
        }
      ],
      "name": "UnstakedLSY",
      "type": "event"
    },
    {
      "inputs": [],
      "name": "REWARD_RATE",
      "outputs": [
        {
          "internalType": "uint256",
          "name": "",
          "type": "uint256"
        }
      ],
      "stateMutability": "view",
      "type": "function"
    },
    {
      "inputs": [],
      "name": "SCALE_FACTOR",
      "outputs": [
        {
          "internalType": "uint256",
          "name": "",
          "type": "uint256"
        }
      ],
      "stateMutability": "view",
      "type": "function"
    },
    {
      "inputs": [],
      "name": "SECONDS_PER_YEAR",
      "outputs": [
        {
          "internalType": "uint256",
          "name": "",
          "type": "uint256"
        }
      ],
      "stateMutability": "view",
      "type": "function"
    },
    {
      "inputs": [],
      "name": "claimRewards",
      "outputs": [],
      "stateMutability": "payable",
      "type": "function"
    },
    {
      "inputs": [],
      "name": "getStakingPoolDetails",
      "outputs": [
        {
          "components": [
            {
              "internalType": "uint256",
              "name": "rewardRate",
              "type": "uint256"
            },
            {
              "internalType": "uint256",
              "name": "totalStakedAmount",
              "type": "uint256"
            },
            {
              "internalType": "uint256",
              "name": "totalUniqueStakers",
              "type": "uint256"
            },
            {
              "internalType": "uint256",
              "name": "tokenPrice",
              "type": "uint256"
            },
            {
              "internalType": "uint256",
              "name": "scaleFactor",
              "type": "uint256"
            }
          ],
          "internalType": "struct Staking.StakingPoolDetails",
          "name": "",
          "type": "tuple"
        }
      ],
      "stateMutability": "view",
      "type": "function"
    },
    {
      "inputs": [
        {
          "internalType": "address",
          "name": "_user",
          "type": "address"
        }
      ],
      "name": "getUserStakeDetails",
      "outputs": [
        {
          "components": [
            {
              "internalType": "uint256",
              "name": "balanceOf",
              "type": "uint256"
            },
            {
              "internalType": "uint256",
              "name": "totalAmount",
              "type": "uint256"
            },
            {
              "internalType": "uint256",
              "name": "pendingRewards",
              "type": "uint256"
            },
            {
              "internalType": "uint256",
              "name": "rewardsPerSec",
              "type": "uint256"
            },
            {
              "internalType": "uint256",
              "name": "lastUpdateTime",
              "type": "uint256"
            }
          ],
          "internalType": "struct Staking.UserStakeDetails",
          "name": "",
          "type": "tuple"
        }
      ],
      "stateMutability": "view",
      "type": "function"
    },
    {
      "inputs": [],
      "name": "lsyToken",
      "outputs": [
        {
          "internalType": "contract IERC20",
          "name": "",
          "type": "address"
        }
      ],
      "stateMutability": "view",
      "type": "function"
    },
    {
      "inputs": [],
      "name": "owner",
      "outputs": [
        {
          "internalType": "address",
          "name": "",
          "type": "address"
        }
      ],
      "stateMutability": "view",
      "type": "function"
    },
    {
      "inputs": [],
      "name": "renounceOwnership",
      "outputs": [],
      "stateMutability": "nonpayable",
      "type": "function"
    },
    {
      "inputs": [
        {
          "internalType": "uint256",
          "name": "_amountWei",
          "type": "uint256"
        }
      ],
      "name": "stakeLSY",
      "outputs": [],
      "stateMutability": "payable",
      "type": "function"
    },
    {
      "inputs": [],
      "name": "totalStakedAmount",
      "outputs": [
        {
          "internalType": "uint256",
          "name": "",
          "type": "uint256"
        }
      ],
      "stateMutability": "view",
      "type": "function"
    },
    {
      "inputs": [],
      "name": "totalUniqueStakers",
      "outputs": [
        {
          "internalType": "uint256",
          "name": "",
          "type": "uint256"
        }
      ],
      "stateMutability": "view",
      "type": "function"
    },
    {
      "inputs": [
        {
          "internalType": "address",
          "name": "newOwner",
          "type": "address"
        }
      ],
      "name": "transferOwnership",
      "outputs": [],
      "stateMutability": "nonpayable",
      "type": "function"
    },
    {
      "inputs": [
        {
          "internalType": "uint256",
          "name": "_amountWei",
          "type": "uint256"
        }
      ],
      "name": "unstakeLSY",
      "outputs": [],
      "stateMutability": "payable",
      "type": "function"
    },
    {
      "inputs": [
        {
          "internalType": "address",
          "name": "",
          "type": "address"
        }
      ],
      "name": "userStakes",
      "outputs": [
        {
          "internalType": "uint256",
          "name": "totalAmount",
          "type": "uint256"
        },
        {
          "internalType": "uint256",
          "name": "lastUpdateTime",
          "type": "uint256"
        },
        {
          "internalType": "uint256",
          "name": "pendingRewards",
          "type": "uint256"
        }
      ],
      "stateMutability": "view",
      "type": "function"
    }
  ],
  "bytecode": "0x60a060405234801561001057600080fd5b50604051611cd3380380611cd383398181016040528101906100329190610308565b33600073ffffffffffffffffffffffffffffffffffffffff168173ffffffffffffffffffffffffffffffffffffffff16036100a55760006040517f1e4fbdf700000000000000000000000000000000000000000000000000000000815260040161009c9190610344565b60405180910390fd5b6100b4816101e160201b60201c565b50600180819055508073ffffffffffffffffffffffffffffffffffffffff1660808173ffffffffffffffffffffffffffffffffffffffff16815250508073ffffffffffffffffffffffffffffffffffffffff16637469b929306040518263ffffffff1660e01b81526004016101299190610344565b600060405180830381600087803b15801561014357600080fd5b505af1158015610157573d6000803e3d6000fd5b505050508073ffffffffffffffffffffffffffffffffffffffff166370a08231306040518263ffffffff1660e01b81526004016101949190610344565b602060405180830381865afa1580156101b1573d6000803e3d6000fd5b505050506040513d601f19601f820116820180604052508101906101d59190610395565b600281905550506103c2565b60008060009054906101000a900473ffffffffffffffffffffffffffffffffffffffff169050816000806101000a81548173ffffffffffffffffffffffffffffffffffffffff021916908373ffffffffffffffffffffffffffffffffffffffff1602179055508173ffffffffffffffffffffffffffffffffffffffff168173ffffffffffffffffffffffffffffffffffffffff167f8be0079c531659141344cd1fd0a4f28419497f9722a3daafe3b4186f6b6457e060405160405180910390a35050565b600080fd5b600073ffffffffffffffffffffffffffffffffffffffff82169050919050565b60006102d5826102aa565b9050919050565b6102e5816102ca565b81146102f057600080fd5b50565b600081519050610302816102dc565b92915050565b60006020828403121561031e5761031d6102a5565b5b600061032c848285016102f3565b91505092915050565b61033e816102ca565b82525050565b60006020820190506103596000830184610335565b92915050565b6000819050919050565b6103728161035f565b811461037d57600080fd5b50565b60008151905061038f81610369565b92915050565b6000602082840312156103ab576103aa6102a5565b5b60006103b984828501610380565b91505092915050565b6080516118cc610407600039600081816103660152818161040d015281816105b60152818161070a0152818161097e01528181610b350152610bbb01526118cc6000f3fe6080604052600436106100e85760003560e01c8063715018a61161008a578063ce4b5bbe11610059578063ce4b5bbe14610287578063d239a121146102b2578063e6a69ab8146102ef578063f2fde38b1461031a576100e8565b8063715018a6146101db5780638da5cb5b146101f25780638da7ad231461021d578063c2eaf2551461025c576100e8565b80634bf9c46d116100c65780634bf9c46d1461013e57806354d261be14610169578063567e98f9146101855780635997bb37146101b0576100e8565b80630e6cee90146100ed57806318b4f75514610118578063372500ab14610134575b600080fd5b3480156100f957600080fd5b50610102610343565b60405161010f9190611243565b60405180910390f35b610132600480360381019061012d919061128f565b6104b0565b005b61013c610655565b005b34801561014a57600080fd5b5061015361085f565b60405161016091906112cb565b60405180910390f35b610183600480360381019061017e919061128f565b610865565b005b34801561019157600080fd5b5061019a610aba565b6040516101a791906112cb565b60405180910390f35b3480156101bc57600080fd5b506101c5610ac0565b6040516101d291906112cb565b60405180910390f35b3480156101e757600080fd5b506101f0610acc565b005b3480156101fe57600080fd5b50610207610ae0565b6040516102149190611327565b60405180910390f35b34801561022957600080fd5b50610244600480360381019061023f919061136e565b610b09565b6040516102539392919061139b565b60405180910390f35b34801561026857600080fd5b50610271610b33565b60405161027e9190611431565b60405180910390f35b34801561029357600080fd5b5061029c610b57565b6040516102a991906112cb565b60405180910390f35b3480156102be57600080fd5b506102d960048036038101906102d4919061136e565b610b63565b6040516102e691906114b4565b60405180910390f35b3480156102fb57600080fd5b50610304610caf565b60405161031191906112cb565b60405180910390f35b34801561032657600080fd5b50610341600480360381019061033c919061136e565b610cbe565b005b61034b611164565b6040518060a0016040528067016345785d8a000081526020017f000000000000000000000000000000000000000000000000000000000000000073ffffffffffffffffffffffffffffffffffffffff166370a08231306040518263ffffffff1660e01b81526004016103bd9190611327565b602060405180830381865afa1580156103da573d6000803e3d6000fd5b505050506040513d601f19601f820116820180604052508101906103fe91906114e4565b815260200160035481526020017f000000000000000000000000000000000000000000000000000000000000000073ffffffffffffffffffffffffffffffffffffffff1663d2d8cb676040518163ffffffff1660e01b8152600401602060405180830381865afa158015610476573d6000803e3d6000fd5b505050506040513d601f19601f8201168201806040525081019061049a91906114e4565b8152602001670de0b6b3a7640000815250905090565b6104b8610d44565b600081116104fb576040517f08c379a00000000000000000000000000000000000000000000000000000000081526004016104f29061156e565b60405180910390fd5b6000600460003373ffffffffffffffffffffffffffffffffffffffff1673ffffffffffffffffffffffffffffffffffffffff16815260200190815260200160002090506000816000015403610570576003600081548092919061055d906115bd565b919050555042816001018190555061057a565b61057933610d8a565b5b8181600001600082825461058e9190611605565b9250508190555081600260008282546105a79190611605565b925050819055506105fb3330847f000000000000000000000000000000000000000000000000000000000000000073ffffffffffffffffffffffffffffffffffffffff16610e65909392919063ffffffff16565b3373ffffffffffffffffffffffffffffffffffffffff167f83563e7bfd696c6b3d67b52c2a56041fca16183dfdd1bba643e9a0da549828e38360405161064191906112cb565b60405180910390a250610652610ee7565b50565b61065d610d44565b61066633610d8a565b6000600460003373ffffffffffffffffffffffffffffffffffffffff1673ffffffffffffffffffffffffffffffffffffffff168152602001908152602001600020905060008160020154116106f0576040517f08c379a00000000000000000000000000000000000000000000000000000000081526004016106e790611685565b60405180910390fd5b6000816002015490506000826002018190555061074e33827f000000000000000000000000000000000000000000000000000000000000000073ffffffffffffffffffffffffffffffffffffffff16610ef09092919063ffffffff16565b3373ffffffffffffffffffffffffffffffffffffffff167f2d5429efdeca7741a8cd94067b18d988bc4e5f1d5b8272c37b7bfc31e9bfa32c8260405161079491906112cb565b60405180910390a280600260008282546107ae91906116a5565b92505081905550600082600001541480156107cd575060008260020154145b1561084957600360008154809291906107e5906116d9565b9190505550600460003373ffffffffffffffffffffffffffffffffffffffff1673ffffffffffffffffffffffffffffffffffffffff168152602001908152602001600020600080820160009055600182016000905560028201600090555050610853565b4282600101819055505b505061085d610ee7565b565b60035481565b61086d610d44565b61087633610d8a565b6000600460003373ffffffffffffffffffffffffffffffffffffffff1673ffffffffffffffffffffffffffffffffffffffff1681526020019081526020016000209050600082116108fc576040517f08c379a00000000000000000000000000000000000000000000000000000000081526004016108f39061156e565b60405180910390fd5b8060000154821115610943576040517f08c379a000000000000000000000000000000000000000000000000000000000815260040161093a90611774565b60405180910390fd5b8181600001600082825461095791906116a5565b92505081905550816002600082825461097091906116a5565b925050819055506109c233837f000000000000000000000000000000000000000000000000000000000000000073ffffffffffffffffffffffffffffffffffffffff16610ef09092919063ffffffff16565b3373ffffffffffffffffffffffffffffffffffffffff167f36f8d74b148b9d27dd2db2d94c23632cf5f538339e1cfef2fce08fee6567c2a683604051610a0891906112cb565b60405180910390a260008160000154148015610a28575060008160020154145b15610aa45760036000815480929190610a40906116d9565b9190505550600460003373ffffffffffffffffffffffffffffffffffffffff1673ffffffffffffffffffffffffffffffffffffffff168152602001908152602001600020600080820160009055600182016000905560028201600090555050610aae565b4281600101819055505b50610ab7610ee7565b50565b60025481565b67016345785d8a000081565b610ad4610f6f565b610ade6000610ff6565b565b60008060009054906101000a900473ffffffffffffffffffffffffffffffffffffffff16905090565b60046020528060005260406000206000915090508060000154908060010154908060020154905083565b7f000000000000000000000000000000000000000000000000000000000000000081565b670de0b6b3a764000081565b610b6b611193565b6000600460008473ffffffffffffffffffffffffffffffffffffffff1673ffffffffffffffffffffffffffffffffffffffff16815260200190815260200160002090506040518060a001604052807f000000000000000000000000000000000000000000000000000000000000000073ffffffffffffffffffffffffffffffffffffffff166370a08231336040518263ffffffff1660e01b8152600401610c129190611327565b602060405180830381865afa158015610c2f573d6000803e3d6000fd5b505050506040513d601f19601f82011682018060405250810190610c5391906114e4565b815260200182600001548152602001826002015481526020016a1a1601fc4ea7109e00000067016345785d8a00008460000154610c909190611794565b610c9a9190611805565b81526020018260010154815250915050919050565b6a1a1601fc4ea7109e00000081565b610cc6610f6f565b600073ffffffffffffffffffffffffffffffffffffffff168173ffffffffffffffffffffffffffffffffffffffff1603610d385760006040517f1e4fbdf7000000000000000000000000000000000000000000000000000000008152600401610d2f9190611327565b60405180910390fd5b610d4181610ff6565b50565b600260015403610d80576040517f3ee5aeb500000000000000000000000000000000000000000000000000000000815260040160405180910390fd5b6002600181905550565b6000600460008373ffffffffffffffffffffffffffffffffffffffff1673ffffffffffffffffffffffffffffffffffffffff16815260200190815260200160002090506000816000015403610ddf5750610e62565b6000816001015442610df191906116a5565b90506000811115610e5f5760006a1a1601fc4ea7109e0000008267016345785d8a00008560000154610e239190611794565b610e2d9190611794565b610e379190611805565b905080836002016000828254610e4d9190611605565b92505081905550428360010181905550505b50505b50565b610ee1848573ffffffffffffffffffffffffffffffffffffffff166323b872dd868686604051602401610e9a93929190611836565b604051602081830303815290604052915060e01b6020820180517bffffffffffffffffffffffffffffffffffffffffffffffffffffffff83818316178352505050506110ba565b50505050565b60018081905550565b610f6a838473ffffffffffffffffffffffffffffffffffffffff1663a9059cbb8585604051602401610f2392919061186d565b604051602081830303815290604052915060e01b6020820180517bffffffffffffffffffffffffffffffffffffffffffffffffffffffff83818316178352505050506110ba565b505050565b610f7761115c565b73ffffffffffffffffffffffffffffffffffffffff16610f95610ae0565b73ffffffffffffffffffffffffffffffffffffffff1614610ff457610fb861115c565b6040517f118cdaa7000000000000000000000000000000000000000000000000000000008152600401610feb9190611327565b60405180910390fd5b565b60008060009054906101000a900473ffffffffffffffffffffffffffffffffffffffff169050816000806101000a81548173ffffffffffffffffffffffffffffffffffffffff021916908373ffffffffffffffffffffffffffffffffffffffff1602179055508173ffffffffffffffffffffffffffffffffffffffff168173ffffffffffffffffffffffffffffffffffffffff167f8be0079c531659141344cd1fd0a4f28419497f9722a3daafe3b4186f6b6457e060405160405180910390a35050565b600080602060008451602086016000885af1806110dd576040513d6000823e3d81fd5b3d9250600051915050600082146110f8576001811415611114565b60008473ffffffffffffffffffffffffffffffffffffffff163b145b1561115657836040517f5274afe700000000000000000000000000000000000000000000000000000000815260040161114d9190611327565b60405180910390fd5b50505050565b600033905090565b6040518060a0016040528060008152602001600081526020016000815260200160008152602001600081525090565b6040518060a0016040528060008152602001600081526020016000815260200160008152602001600081525090565b6000819050919050565b6111d5816111c2565b82525050565b60a0820160008201516111f160008501826111cc565b50602082015161120460208501826111cc565b50604082015161121760408501826111cc565b50606082015161122a60608501826111cc565b50608082015161123d60808501826111cc565b50505050565b600060a08201905061125860008301846111db565b92915050565b600080fd5b61126c816111c2565b811461127757600080fd5b50565b60008135905061128981611263565b92915050565b6000602082840312156112a5576112a461125e565b5b60006112b38482850161127a565b91505092915050565b6112c5816111c2565b82525050565b60006020820190506112e060008301846112bc565b92915050565b600073ffffffffffffffffffffffffffffffffffffffff82169050919050565b6000611311826112e6565b9050919050565b61132181611306565b82525050565b600060208201905061133c6000830184611318565b92915050565b61134b81611306565b811461135657600080fd5b50565b60008135905061136881611342565b92915050565b6000602082840312156113845761138361125e565b5b600061139284828501611359565b91505092915050565b60006060820190506113b060008301866112bc565b6113bd60208301856112bc565b6113ca60408301846112bc565b949350505050565b6000819050919050565b60006113f76113f26113ed846112e6565b6113d2565b6112e6565b9050919050565b6000611409826113dc565b9050919050565b600061141b826113fe565b9050919050565b61142b81611410565b82525050565b60006020820190506114466000830184611422565b92915050565b60a08201600082015161146260008501826111cc565b50602082015161147560208501826111cc565b50604082015161148860408501826111cc565b50606082015161149b60608501826111cc565b5060808201516114ae60808501826111cc565b50505050565b600060a0820190506114c9600083018461144c565b92915050565b6000815190506114de81611263565b92915050565b6000602082840312156114fa576114f961125e565b5b6000611508848285016114cf565b91505092915050565b600082825260208201905092915050565b7f616d6f756e74206d7573742062652067726561746572207468616e2030000000600082015250565b6000611558601d83611511565b915061156382611522565b602082019050919050565b600060208201905081810360008301526115878161154b565b9050919050565b7f4e487b7100000000000000000000000000000000000000000000000000000000600052601160045260246000fd5b60006115c8826111c2565b91507fffffffffffffffffffffffffffffffffffffffffffffffffffffffffffffffff82036115fa576115f961158e565b5b600182019050919050565b6000611610826111c2565b915061161b836111c2565b92508282019050808211156116335761163261158e565b5b92915050565b7f6e6f2070656e64696e6720726577617264730000000000000000000000000000600082015250565b600061166f601283611511565b915061167a82611639565b602082019050919050565b6000602082019050818103600083015261169e81611662565b9050919050565b60006116b0826111c2565b91506116bb836111c2565b92508282039050818111156116d3576116d261158e565b5b92915050565b60006116e4826111c2565b9150600082036116f7576116f661158e565b5b600182039050919050565b7f616d6f756e74206d757374206265206c657373207468616e20746f74616c207360008201527f74616b656420616d6f756e740000000000000000000000000000000000000000602082015250565b600061175e602c83611511565b915061176982611702565b604082019050919050565b6000602082019050818103600083015261178d81611751565b9050919050565b600061179f826111c2565b91506117aa836111c2565b92508282026117b8816111c2565b915082820484148315176117cf576117ce61158e565b5b5092915050565b7f4e487b7100000000000000000000000000000000000000000000000000000000600052601260045260246000fd5b6000611810826111c2565b915061181b836111c2565b92508261182b5761182a6117d6565b5b828204905092915050565b600060608201905061184b6000830186611318565b6118586020830185611318565b61186560408301846112bc565b949350505050565b60006040820190506118826000830185611318565b61188f60208301846112bc565b939250505056fea26469706673582212201cd8d88a70a9e017873d5d604fb06c2dc30650e922152d0bbd7229577c52343964736f6c634300081c0033",
  "linkReferences": {},
  "deployedLinkReferences": {}
}