{
  "_format": "hh-sol-artifact-1",
  "contractName": "Staking",
  "sourceName": "contracts/Staking.sol",
  "abi": [
    {
      "inputs": [
        {
          "internalType": "address",
          "name": "_lsyToken",
          "type": "address"
        }
      ],
      "stateMutability": "nonpayable",
      "type": "constructor"
    },
    {
      "inputs": [
        {
          "internalType": "address",
          "name": "owner",
          "type": "address"
        }
      ],
      "name": "OwnableInvalidOwner",
      "type": "error"
    },
    {
      "inputs": [
        {
          "internalType": "address",
          "name": "account",
          "type": "address"
        }
      ],
      "name": "OwnableUnauthorizedAccount",
      "type": "error"
    },
    {
      "inputs": [],
      "name": "ReentrancyGuardReentrantCall",
      "type": "error"
    },
    {
      "inputs": [
        {
          "internalType": "address",
          "name": "token",
          "type": "address"
        }
      ],
      "name": "SafeERC20FailedOperation",
      "type": "error"
    },
    {
      "anonymous": false,
      "inputs": [
        {
          "indexed": true,
          "internalType": "address",
          "name": "user",
          "type": "address"
        },
        {
          "indexed": false,
          "internalType": "uint256",
          "name": "amount",
          "type": "uint256"
        }
      ],
      "name": "ClaimedRewards",
      "type": "event"
    },
    {
      "anonymous": false,
      "inputs": [
        {
          "indexed": true,
          "internalType": "address",
          "name": "previousOwner",
          "type": "address"
        },
        {
          "indexed": true,
          "internalType": "address",
          "name": "newOwner",
          "type": "address"
        }
      ],
      "name": "OwnershipTransferred",
      "type": "event"
    },
    {
      "anonymous": false,
      "inputs": [
        {
          "indexed": true,
          "internalType": "address",
          "name": "user",
          "type": "address"
        },
        {
          "indexed": false,
          "internalType": "uint256",
          "name": "amount",
          "type": "uint256"
        }
      ],
      "name": "StakedLSY",
      "type": "event"
    },
    {
      "anonymous": false,
      "inputs": [
        {
          "indexed": true,
          "internalType": "address",
          "name": "user",
          "type": "address"
        },
        {
          "indexed": false,
          "internalType": "uint256",
          "name": "amount",
          "type": "uint256"
        }
      ],
      "name": "UnstakedLSY",
      "type": "event"
    },
    {
      "inputs": [],
      "name": "DECIMALS",
      "outputs": [
        {
          "internalType": "uint256",
          "name": "",
          "type": "uint256"
        }
      ],
      "stateMutability": "view",
      "type": "function"
    },
    {
      "inputs": [],
      "name": "REWARD_RATE",
      "outputs": [
        {
          "internalType": "uint256",
          "name": "",
          "type": "uint256"
        }
      ],
      "stateMutability": "view",
      "type": "function"
    },
    {
      "inputs": [],
      "name": "SECONDS_PER_YEAR",
      "outputs": [
        {
          "internalType": "uint256",
          "name": "",
          "type": "uint256"
        }
      ],
      "stateMutability": "view",
      "type": "function"
    },
    {
      "inputs": [],
      "name": "claimRewards",
      "outputs": [],
      "stateMutability": "payable",
      "type": "function"
    },
    {
      "inputs": [],
      "name": "getStakingPoolDetails",
      "outputs": [
        {
          "components": [
            {
              "internalType": "uint256",
              "name": "rewardRate",
              "type": "uint256"
            },
            {
              "internalType": "uint256",
              "name": "totalStakedAmount",
              "type": "uint256"
            },
            {
              "internalType": "uint256",
              "name": "totalUniqueStakers",
              "type": "uint256"
            },
            {
              "internalType": "uint256",
              "name": "tokenPrice",
              "type": "uint256"
            },
            {
              "internalType": "uint256",
              "name": "decimals",
              "type": "uint256"
            }
          ],
          "internalType": "struct Staking.StakingPoolDetails",
          "name": "",
          "type": "tuple"
        }
      ],
      "stateMutability": "view",
      "type": "function"
    },
    {
      "inputs": [
        {
          "internalType": "address",
          "name": "_user",
          "type": "address"
        }
      ],
      "name": "getUserStakeDetails",
      "outputs": [
        {
          "components": [
            {
              "internalType": "uint256",
              "name": "balanceOf",
              "type": "uint256"
            },
            {
              "internalType": "uint256",
              "name": "totalAmount",
              "type": "uint256"
            },
            {
              "internalType": "uint256",
              "name": "pendingRewards",
              "type": "uint256"
            },
            {
              "internalType": "uint256",
              "name": "rewardsPerSec",
              "type": "uint256"
            },
            {
              "internalType": "uint256",
              "name": "lastUpdateTime",
              "type": "uint256"
            }
          ],
          "internalType": "struct Staking.UserStakeDetails",
          "name": "",
          "type": "tuple"
        }
      ],
      "stateMutability": "view",
      "type": "function"
    },
    {
      "inputs": [],
      "name": "lsyToken",
      "outputs": [
        {
          "internalType": "contract IERC20",
          "name": "",
          "type": "address"
        }
      ],
      "stateMutability": "view",
      "type": "function"
    },
    {
      "inputs": [],
      "name": "owner",
      "outputs": [
        {
          "internalType": "address",
          "name": "",
          "type": "address"
        }
      ],
      "stateMutability": "view",
      "type": "function"
    },
    {
      "inputs": [],
      "name": "renounceOwnership",
      "outputs": [],
      "stateMutability": "nonpayable",
      "type": "function"
    },
    {
      "inputs": [
        {
          "internalType": "uint256",
          "name": "_amountWei",
          "type": "uint256"
        }
      ],
      "name": "stakeLSY",
      "outputs": [],
      "stateMutability": "payable",
      "type": "function"
    },
    {
      "inputs": [],
      "name": "totalStakedAmount",
      "outputs": [
        {
          "internalType": "uint256",
          "name": "",
          "type": "uint256"
        }
      ],
      "stateMutability": "view",
      "type": "function"
    },
    {
      "inputs": [],
      "name": "totalUniqueStakers",
      "outputs": [
        {
          "internalType": "uint256",
          "name": "",
          "type": "uint256"
        }
      ],
      "stateMutability": "view",
      "type": "function"
    },
    {
      "inputs": [
        {
          "internalType": "address",
          "name": "newOwner",
          "type": "address"
        }
      ],
      "name": "transferOwnership",
      "outputs": [],
      "stateMutability": "nonpayable",
      "type": "function"
    },
    {
      "inputs": [
        {
          "internalType": "uint256",
          "name": "_amountWei",
          "type": "uint256"
        }
      ],
      "name": "unstakeLSY",
      "outputs": [],
      "stateMutability": "payable",
      "type": "function"
    },
    {
      "inputs": [
        {
          "internalType": "address",
          "name": "",
          "type": "address"
        }
      ],
      "name": "userStakes",
      "outputs": [
        {
          "internalType": "uint256",
          "name": "totalAmount",
          "type": "uint256"
        },
        {
          "internalType": "uint256",
          "name": "lastUpdateTime",
          "type": "uint256"
        },
        {
          "internalType": "uint256",
          "name": "pendingRewards",
          "type": "uint256"
        }
      ],
      "stateMutability": "view",
      "type": "function"
    }
  ],
  "bytecode": "0x60a060405234801561001057600080fd5b50604051611cc5380380611cc583398181016040528101906100329190610308565b33600073ffffffffffffffffffffffffffffffffffffffff168173ffffffffffffffffffffffffffffffffffffffff16036100a55760006040517f1e4fbdf700000000000000000000000000000000000000000000000000000000815260040161009c9190610344565b60405180910390fd5b6100b4816101e160201b60201c565b50600180819055508073ffffffffffffffffffffffffffffffffffffffff1660808173ffffffffffffffffffffffffffffffffffffffff16815250508073ffffffffffffffffffffffffffffffffffffffff16637469b929306040518263ffffffff1660e01b81526004016101299190610344565b600060405180830381600087803b15801561014357600080fd5b505af1158015610157573d6000803e3d6000fd5b505050508073ffffffffffffffffffffffffffffffffffffffff166370a08231306040518263ffffffff1660e01b81526004016101949190610344565b602060405180830381865afa1580156101b1573d6000803e3d6000fd5b505050506040513d601f19601f820116820180604052508101906101d59190610395565b600281905550506103c2565b60008060009054906101000a900473ffffffffffffffffffffffffffffffffffffffff169050816000806101000a81548173ffffffffffffffffffffffffffffffffffffffff021916908373ffffffffffffffffffffffffffffffffffffffff1602179055508173ffffffffffffffffffffffffffffffffffffffff168173ffffffffffffffffffffffffffffffffffffffff167f8be0079c531659141344cd1fd0a4f28419497f9722a3daafe3b4186f6b6457e060405160405180910390a35050565b600080fd5b600073ffffffffffffffffffffffffffffffffffffffff82169050919050565b60006102d5826102aa565b9050919050565b6102e5816102ca565b81146102f057600080fd5b50565b600081519050610302816102dc565b92915050565b60006020828403121561031e5761031d6102a5565b5b600061032c848285016102f3565b91505092915050565b61033e816102ca565b82525050565b60006020820190506103596000830184610335565b92915050565b6000819050919050565b6103728161035f565b811461037d57600080fd5b50565b60008151905061038f81610369565b92915050565b6000602082840312156103ab576103aa6102a5565b5b60006103b984828501610380565b91505092915050565b6080516118be610407600039600081816103660152818161040d015281816105af015281816107080152818161097c01528181610b330152610bad01526118be6000f3fe6080604052600436106100e85760003560e01c80635997bb371161008a578063c2eaf25511610059578063c2eaf25514610287578063d239a121146102b2578063e6a69ab8146102ef578063f2fde38b1461031a576100e8565b80635997bb37146101db578063715018a6146102065780638da5cb5b1461021d5780638da7ad2314610248576100e8565b8063372500ab116100c6578063372500ab1461015f5780634bf9c46d1461016957806354d261be14610194578063567e98f9146101b0576100e8565b80630e6cee90146100ed57806318b4f755146101185780632e0f262514610134575b600080fd5b3480156100f957600080fd5b50610102610343565b60405161010f9190611235565b60405180910390f35b610132600480360381019061012d9190611281565b6104a9565b005b34801561014057600080fd5b5061014961064e565b60405161015691906112bd565b60405180910390f35b610167610653565b005b34801561017557600080fd5b5061017e61085d565b60405161018b91906112bd565b60405180910390f35b6101ae60048036038101906101a99190611281565b610863565b005b3480156101bc57600080fd5b506101c5610ab8565b6040516101d291906112bd565b60405180910390f35b3480156101e757600080fd5b506101f0610abe565b6040516101fd91906112bd565b60405180910390f35b34801561021257600080fd5b5061021b610aca565b005b34801561022957600080fd5b50610232610ade565b60405161023f9190611319565b60405180910390f35b34801561025457600080fd5b5061026f600480360381019061026a9190611360565b610b07565b60405161027e9392919061138d565b60405180910390f35b34801561029357600080fd5b5061029c610b31565b6040516102a99190611423565b60405180910390f35b3480156102be57600080fd5b506102d960048036038101906102d49190611360565b610b55565b6040516102e691906114a6565b60405180910390f35b3480156102fb57600080fd5b50610304610ca1565b60405161031191906112bd565b60405180910390f35b34801561032657600080fd5b50610341600480360381019061033c9190611360565b610cb0565b005b61034b611156565b6040518060a0016040528067016345785d8a000081526020017f000000000000000000000000000000000000000000000000000000000000000073ffffffffffffffffffffffffffffffffffffffff166370a08231306040518263ffffffff1660e01b81526004016103bd9190611319565b602060405180830381865afa1580156103da573d6000803e3d6000fd5b505050506040513d601f19601f820116820180604052508101906103fe91906114d6565b815260200160035481526020017f000000000000000000000000000000000000000000000000000000000000000073ffffffffffffffffffffffffffffffffffffffff1663d2d8cb676040518163ffffffff1660e01b8152600401602060405180830381865afa158015610476573d6000803e3d6000fd5b505050506040513d601f19601f8201168201806040525081019061049a91906114d6565b81526020016012815250905090565b6104b1610d36565b600081116104f4576040517f08c379a00000000000000000000000000000000000000000000000000000000081526004016104eb90611560565b60405180910390fd5b6000600460003373ffffffffffffffffffffffffffffffffffffffff1673ffffffffffffffffffffffffffffffffffffffff168152602001908152602001600020905060008160000154036105695760036000815480929190610556906115af565b9190505550428160010181905550610573565b61057233610d7c565b5b8181600001600082825461058791906115f7565b9250508190555081600260008282546105a091906115f7565b925050819055506105f43330847f000000000000000000000000000000000000000000000000000000000000000073ffffffffffffffffffffffffffffffffffffffff16610e57909392919063ffffffff16565b3373ffffffffffffffffffffffffffffffffffffffff167f83563e7bfd696c6b3d67b52c2a56041fca16183dfdd1bba643e9a0da549828e38360405161063a91906112bd565b60405180910390a25061064b610ed9565b50565b601281565b61065b610d36565b61066433610d7c565b6000600460003373ffffffffffffffffffffffffffffffffffffffff1673ffffffffffffffffffffffffffffffffffffffff168152602001908152602001600020905060008160020154116106ee576040517f08c379a00000000000000000000000000000000000000000000000000000000081526004016106e590611677565b60405180910390fd5b6000816002015490506000826002018190555061074c33827f000000000000000000000000000000000000000000000000000000000000000073ffffffffffffffffffffffffffffffffffffffff16610ee29092919063ffffffff16565b3373ffffffffffffffffffffffffffffffffffffffff167f2d5429efdeca7741a8cd94067b18d988bc4e5f1d5b8272c37b7bfc31e9bfa32c8260405161079291906112bd565b60405180910390a280600260008282546107ac9190611697565b92505081905550600082600001541480156107cb575060008260020154145b1561084757600360008154809291906107e3906116cb565b9190505550600460003373ffffffffffffffffffffffffffffffffffffffff1673ffffffffffffffffffffffffffffffffffffffff168152602001908152602001600020600080820160009055600182016000905560028201600090555050610851565b4282600101819055505b505061085b610ed9565b565b60035481565b61086b610d36565b61087433610d7c565b6000600460003373ffffffffffffffffffffffffffffffffffffffff1673ffffffffffffffffffffffffffffffffffffffff1681526020019081526020016000209050600082116108fa576040517f08c379a00000000000000000000000000000000000000000000000000000000081526004016108f190611560565b60405180910390fd5b8060000154821115610941576040517f08c379a000000000000000000000000000000000000000000000000000000000815260040161093890611766565b60405180910390fd5b818160000160008282546109559190611697565b92505081905550816002600082825461096e9190611697565b925050819055506109c033837f000000000000000000000000000000000000000000000000000000000000000073ffffffffffffffffffffffffffffffffffffffff16610ee29092919063ffffffff16565b3373ffffffffffffffffffffffffffffffffffffffff167f36f8d74b148b9d27dd2db2d94c23632cf5f538339e1cfef2fce08fee6567c2a683604051610a0691906112bd565b60405180910390a260008160000154148015610a26575060008160020154145b15610aa25760036000815480929190610a3e906116cb565b9190505550600460003373ffffffffffffffffffffffffffffffffffffffff1673ffffffffffffffffffffffffffffffffffffffff168152602001908152602001600020600080820160009055600182016000905560028201600090555050610aac565b4281600101819055505b50610ab5610ed9565b50565b60025481565b67016345785d8a000081565b610ad2610f61565b610adc6000610fe8565b565b60008060009054906101000a900473ffffffffffffffffffffffffffffffffffffffff16905090565b60046020528060005260406000206000915090508060000154908060010154908060020154905083565b7f000000000000000000000000000000000000000000000000000000000000000081565b610b5d611185565b6000600460008473ffffffffffffffffffffffffffffffffffffffff1673ffffffffffffffffffffffffffffffffffffffff16815260200190815260200160002090506040518060a001604052807f000000000000000000000000000000000000000000000000000000000000000073ffffffffffffffffffffffffffffffffffffffff166370a08231866040518263ffffffff1660e01b8152600401610c049190611319565b602060405180830381865afa158015610c21573d6000803e3d6000fd5b505050506040513d601f19601f82011682018060405250810190610c4591906114d6565b815260200182600001548152602001826002015481526020016a1a1601fc4ea7109e00000067016345785d8a00008460000154610c829190611786565b610c8c91906117f7565b81526020018260010154815250915050919050565b6a1a1601fc4ea7109e00000081565b610cb8610f61565b600073ffffffffffffffffffffffffffffffffffffffff168173ffffffffffffffffffffffffffffffffffffffff1603610d2a5760006040517f1e4fbdf7000000000000000000000000000000000000000000000000000000008152600401610d219190611319565b60405180910390fd5b610d3381610fe8565b50565b600260015403610d72576040517f3ee5aeb500000000000000000000000000000000000000000000000000000000815260040160405180910390fd5b6002600181905550565b6000600460008373ffffffffffffffffffffffffffffffffffffffff1673ffffffffffffffffffffffffffffffffffffffff16815260200190815260200160002090506000816000015403610dd15750610e54565b6000816001015442610de39190611697565b90506000811115610e515760006a1a1601fc4ea7109e0000008267016345785d8a00008560000154610e159190611786565b610e1f9190611786565b610e2991906117f7565b905080836002016000828254610e3f91906115f7565b92505081905550428360010181905550505b50505b50565b610ed3848573ffffffffffffffffffffffffffffffffffffffff166323b872dd868686604051602401610e8c93929190611828565b604051602081830303815290604052915060e01b6020820180517bffffffffffffffffffffffffffffffffffffffffffffffffffffffff83818316178352505050506110ac565b50505050565b60018081905550565b610f5c838473ffffffffffffffffffffffffffffffffffffffff1663a9059cbb8585604051602401610f1592919061185f565b604051602081830303815290604052915060e01b6020820180517bffffffffffffffffffffffffffffffffffffffffffffffffffffffff83818316178352505050506110ac565b505050565b610f6961114e565b73ffffffffffffffffffffffffffffffffffffffff16610f87610ade565b73ffffffffffffffffffffffffffffffffffffffff1614610fe657610faa61114e565b6040517f118cdaa7000000000000000000000000000000000000000000000000000000008152600401610fdd9190611319565b60405180910390fd5b565b60008060009054906101000a900473ffffffffffffffffffffffffffffffffffffffff169050816000806101000a81548173ffffffffffffffffffffffffffffffffffffffff021916908373ffffffffffffffffffffffffffffffffffffffff1602179055508173ffffffffffffffffffffffffffffffffffffffff168173ffffffffffffffffffffffffffffffffffffffff167f8be0079c531659141344cd1fd0a4f28419497f9722a3daafe3b4186f6b6457e060405160405180910390a35050565b600080602060008451602086016000885af1806110cf576040513d6000823e3d81fd5b3d9250600051915050600082146110ea576001811415611106565b60008473ffffffffffffffffffffffffffffffffffffffff163b145b1561114857836040517f5274afe700000000000000000000000000000000000000000000000000000000815260040161113f9190611319565b60405180910390fd5b50505050565b600033905090565b6040518060a0016040528060008152602001600081526020016000815260200160008152602001600081525090565b6040518060a0016040528060008152602001600081526020016000815260200160008152602001600081525090565b6000819050919050565b6111c7816111b4565b82525050565b60a0820160008201516111e360008501826111be565b5060208201516111f660208501826111be565b50604082015161120960408501826111be565b50606082015161121c60608501826111be565b50608082015161122f60808501826111be565b50505050565b600060a08201905061124a60008301846111cd565b92915050565b600080fd5b61125e816111b4565b811461126957600080fd5b50565b60008135905061127b81611255565b92915050565b60006020828403121561129757611296611250565b5b60006112a58482850161126c565b91505092915050565b6112b7816111b4565b82525050565b60006020820190506112d260008301846112ae565b92915050565b600073ffffffffffffffffffffffffffffffffffffffff82169050919050565b6000611303826112d8565b9050919050565b611313816112f8565b82525050565b600060208201905061132e600083018461130a565b92915050565b61133d816112f8565b811461134857600080fd5b50565b60008135905061135a81611334565b92915050565b60006020828403121561137657611375611250565b5b60006113848482850161134b565b91505092915050565b60006060820190506113a260008301866112ae565b6113af60208301856112ae565b6113bc60408301846112ae565b949350505050565b6000819050919050565b60006113e96113e46113df846112d8565b6113c4565b6112d8565b9050919050565b60006113fb826113ce565b9050919050565b600061140d826113f0565b9050919050565b61141d81611402565b82525050565b60006020820190506114386000830184611414565b92915050565b60a08201600082015161145460008501826111be565b50602082015161146760208501826111be565b50604082015161147a60408501826111be565b50606082015161148d60608501826111be565b5060808201516114a060808501826111be565b50505050565b600060a0820190506114bb600083018461143e565b92915050565b6000815190506114d081611255565b92915050565b6000602082840312156114ec576114eb611250565b5b60006114fa848285016114c1565b91505092915050565b600082825260208201905092915050565b7f616d6f756e74206d7573742062652067726561746572207468616e2030000000600082015250565b600061154a601d83611503565b915061155582611514565b602082019050919050565b600060208201905081810360008301526115798161153d565b9050919050565b7f4e487b7100000000000000000000000000000000000000000000000000000000600052601160045260246000fd5b60006115ba826111b4565b91507fffffffffffffffffffffffffffffffffffffffffffffffffffffffffffffffff82036115ec576115eb611580565b5b600182019050919050565b6000611602826111b4565b915061160d836111b4565b925082820190508082111561162557611624611580565b5b92915050565b7f6e6f2070656e64696e6720726577617264730000000000000000000000000000600082015250565b6000611661601283611503565b915061166c8261162b565b602082019050919050565b6000602082019050818103600083015261169081611654565b9050919050565b60006116a2826111b4565b91506116ad836111b4565b92508282039050818111156116c5576116c4611580565b5b92915050565b60006116d6826111b4565b9150600082036116e9576116e8611580565b5b600182039050919050565b7f616d6f756e74206d757374206265206c657373207468616e20746f74616c207360008201527f74616b656420616d6f756e740000000000000000000000000000000000000000602082015250565b6000611750602c83611503565b915061175b826116f4565b604082019050919050565b6000602082019050818103600083015261177f81611743565b9050919050565b6000611791826111b4565b915061179c836111b4565b92508282026117aa816111b4565b915082820484148315176117c1576117c0611580565b5b5092915050565b7f4e487b7100000000000000000000000000000000000000000000000000000000600052601260045260246000fd5b6000611802826111b4565b915061180d836111b4565b92508261181d5761181c6117c8565b5b828204905092915050565b600060608201905061183d600083018661130a565b61184a602083018561130a565b61185760408301846112ae565b949350505050565b6000604082019050611874600083018561130a565b61188160208301846112ae565b939250505056fea2646970667358221220e978823dc895a84affdc4679fc836acab488d7f20c4893836e6bdbd647d9a38164736f6c634300081c0033",
  "linkReferences": {},
  "deployedLinkReferences": {}
}